:020000040800F2
:1000000000000320BD050008D1230008D323000809
:10001000D5230008D7230008D923000800000000DA
:100020000000000000000000000000005170000807
:10003000DB23000800000000E1700008856900086B
:100040000D0600080D0600080D0600080D06000844
:100050000D0600080D0600080D0600080D06000834
:100060000D0600080D0600080D0600080D06000824
:100070000D0600080D0600080D0600080D06000814
:10008000DD2300080D0600080D0600080D06000817
:100090000D0600080D0600080D0600080D060008F4
:1000A000E92300080D0600080D0600080D060008EB
:1000B0000D0600080D0600080D0600080D060008D4
:1000C0000D0600080D0600080D0600080D060008C4
:1000D0000D0600080D0600086D2400080D06000836
:1000E0000D0600080D0600080D0600080D060008A4
:1000F0000D0600080D0600080D0600080D06000894
:100100000D0600080D0600080D0600080D06000883
:100110000D0600080D060008792400080D060008E9
:100120000D0600080D0600080D0600080D06000863
:100130000D0600080D0600080D0600080D06000853
:100140000D0600080D0600080D0600080D06000843
:100150000D0600080D0600080D0600080D06000833
:100160000D0600080D0600080D0600080D06000823
:100170000D0600080D0600080D060008000000002E
:100180000D0600080D0600080D0600080D06000803
:100190000D0600080D0600080D0600080D060008F3
:0C01A000852400080D06000891240008CA
:1001B00010B5054C237833B9044B13B10448AFF3A1
:1001C00000800123237010BD800300200000000088
:1001D0009455020808B5034B1BB103490348AFF31C
:1001E000008008BD00000000840300209455020830
:1001F00001F0FF01102A2BDB10F0070F08D010F8D8
:10020000013B013A8B422DD010F0070F42B3F6D1DB
:10021000F0B441EA012141EA014122F007047FF0F4
:1002200000070023F0E80256083C85EA010586EA4B
:10023000010685FA47F5A3FA87F586FA47F6A5FA87
:1002400087F68EB9EED1F0BC01F0FF0102F0070293
:1002500032B110F8013B013A83EA010313B1F8D13E
:100260000020704701387047002D06BF354603381F
:10027000073815F0010F07D1013015F4807F02BF58
:10028000013015F4C03F0130F0BC0138704700BFA9
:1002900053B94AB9002908BF00281CBF4FF0FF31ED
:1002A0004FF0FF3000F088B9ADF1080C6DE904CED5
:1002B00000F006F8DDF804E0DDE9022304B0704741
:1002C0002DE9F047089D0F4604468C46002B48D187
:1002D0008A42164661D9B2FA82F34BB1C3F12002C9
:1002E00001FA03FC20FA02F29E4042EA0C0C9C4008
:1002F0004FEA164EB7B2BCFBFEF1220C0EFB11CC3E
:1003000042EA0C4201FB07F0904209D9B21801F110
:10031000FF3C80F0EE80904240F2EB8002393244A4
:10032000121AA4B2B2FBFEF00EFB102244EA024401
:1003300000FB07F7A74209D9341900F1FF3280F01A
:10034000DA80A74240F2D7803444023840EA0140C4
:10035000E41B00211DB1DC400023C5E90043BDE8DA
:10036000F0878B4206D90DB1C5E90001002108468E
:10037000BDE8F087B3FA83F1002948D1BB4202D32C
:10038000824200F20781841A67EB0302012094463F
:10039000002DE4D0C5E9004CE1E7002A00F092808E
:1003A000B2FA82F3002B40F0A8808A1A4FEA164E68
:1003B0001FFA86FC0121200CB2FBFEF70EFB172270
:1003C00040EA02420CFB07F0904207D9B21807F14D
:1003D000FF3802D2904200F2E2804746121AA4B2DD
:1003E000B2FBFEF00EFB102244EA02440CFB00FCC0
:1003F000A44507D9341900F1FF3202D2A44500F216
:10040000CB801046A4EB0C0440EA0740A2E7C1F100
:1004100020068B4022FA06FC4CEA030C07FA01F492
:1004200020FA06F3F7404FEA1C49234300FA01F88B
:100430001FFA8CFEB7FBF9F01C0C09FB107744EA9D
:10044000074400FB0EF7A74202FA01F20AD91CEB9F
:10045000040400F1FF3A80F09B80A74240F29880AC
:1004600002386444E41B9FB2B4FBF9F309FB134464
:1004700047EA044403FB0EFEA64509D91CEB04041D
:1004800003F1FF3780F08280A6457FD9023B6444A8
:1004900043EA0040A4EB0E04A0FB02E7BC42734613
:1004A000B94663D360D05DB1B8EB030264EB0904D5
:1004B00004FA06F622FA01F31E43CC40C5E90064B3
:1004C00000214CE76208480842EAC1710B0C43EA7C
:1004D00000438AB242EA0342B3FBF6F1E407B446B2
:1004E0003746B6461F23B0FBF6F0D21B41EA004167
:1004F00061E7614614E7104628E7C3F1200120FABE
:1005000001F29E4027FA01F19F403A434FEA164E0E
:100510001FFA86FCB1FBFEF70EFB1710110C41EA27
:10052000004107FB0CF8884504FA03F43AD9711826
:1005300007F1FF3001D288451FD8A1EB0801B1FBBC
:10054000FEF808FB0CF70EFB181192B242EA0142CA
:10055000BA422FD2B21808F1FF31C6D2BA42C4D281
:10056000A8F102013244C0E7F0459CD2BEEB020381
:1005700067EB0C070138B94695E7A6EB080841443C
:10058000B81EB1FBFEF808FB0CF7DCE73B467FE743
:10059000504667E70846FBE63444023832E7023F3C
:1005A00032441BE7A1EB08013846B1FBFEF808FB1B
:1005B0000CF7C8E7414698E7704700BFDFF834D032
:1005C000002103E00C4B5B58435004310B480C4BAB
:1005D00042189A42F6D30B4A02E0002342F8043B49
:1005E000094B9A42F9D303F065F924F01FFA01F0A0
:1005F00073F8704700000320A018070800000020CF
:1006000080030020800300209C360120FEE7704715
:1006100008B500F0CDFDBDE8084000F04FBD00F08A
:10062000C9BD704710B50421044622F01CFF2046C6
:1006300010BD000038B50C4B0C4C18800C4B8220C0
:1006400019806368984740F6110398420AD1094D12
:1006500023682C60822098472B688220DB689847AB
:10066000002038BD0120FCE7A60300205000002038
:10067000A4030020A80300204FF4A071F020FFF78E
:10068000D9BF0000F7B5394D2B6804461B6982209D
:100690009847208000284FD02B680DF106025B6937
:1006A00001A982209847324BBDF806201B78002B09
:1006B0004AD040F674639A4240D9ADF80630BDF88E
:1006C00006209B1A9AB20A2A42D90B23B2FBF3F2F4
:1006D000284B1B889A4201D9013B9AB2BDF80430DD
:1006E000254840F6B8318B4234D8C3F571630E33D8
:1006F00001689BB20F25B3FBF5F3204D2D88AB426B
:1007000084BF05F1FF35ABB28B421D468EB22AD9AC
:100710009B1B99B21A4F3E68B3B2B2428CBFD31A38
:100720009B1A9BB219440529C8BF05600368C4BF62
:100730003A6016466380A68003B0F0BDB32A9CBF22
:10074000B422ADF80620BAE7A2F5B47292B2BAE7C5
:100750000022C3E7C3F56D6308339BB20E2B01681B
:10076000C8D800252B46C91A89B2D3E7A8030020B0
:1007700024180020A4030020A0030020A6030020CA
:100780009C03002037B568460D461446FFF77AFFF4
:10079000BDF8000030B1BDF802302B60BDF8043068
:1007A0002360012003B030BD032821D8DFE800F02A
:1007B000020B12190F4B1A68B2FA82F25209042185
:1007C0000D4803F0ADBC0B4B5A68B2FA82F25209E5
:1007D0000821F5E7074B9A68B2FA82F25209102114
:1007E000EEE7044BDA68B2FA82F252092021E7E719
:1007F000704700BFAC03002000100240032821D83E
:10080000DFE800F0020B12190F4B1A68003A18BF0C
:10081000012204210D4803F083BC0B4B5A68003AB7
:1008200018BF01220821F5E7074B9A68003A18BF64
:1008300001221021EEE7044BDA68003A18BF0122CA
:100840002021E7E7704700BFAC0300200010024002
:1008500003280DD8DFE800F00206080A0421054845
:1008600003F063BC0821FAE71021F8E72021F6E73E
:10087000704700BF0010024008B5032811D8DFE818
:1008800000F0020A0C0E0421074803F043FC431E4B
:100890005842584108BD0821F6E71021F4E720210D
:1008A000F2E70020F3E700BF0010024070B5084DEA
:1008B00000240126E0B2FFF7DFFF18B12B68012BFF
:1008C00018BF2E600134052C05F10405F2D170BD6E
:1008D000AC030020012380F87C1080F87D30704745
:1008E0007047002070470000034B8164003918BF37
:1008F00001211970704700BF57290120704700205F
:100900007047C36B0BB10846184770474FF6FF702E
:100910007047406803689B69184770477047704785
:100920007047704710B5044600F05CFD236803492A
:10093000D3F890302046BDE810401847000000D0A2
:1009400008B503680446D3F88430984723682046E6
:10095000DB6F984700F008F9236820465B6F9847E3
:10096000292001F0B3F900F0FFF8236820465B6FFF
:100970009847F8E710B5044609F040FB2368204685
:10098000D3F8BC30BDE81040184700F00FBD00F0B0
:1009900013BD00F045BD00F0E5BC00F055BD00F012
:1009A0005DBD00F0E9BC08F01CBD10B5882104460F
:1009B00022F059FD204610BD10B590F8381090F87F
:1009C0007C400C4B8C421A7809D03AB90A4A0B4940
:1009D0001488088810800C8001221A7010BD002A2B
:1009E000FCD0054A05491488088810800C80002234
:1009F000F3E700BF56290120602901205E2901206C
:100A000008B5094B1B888B4203D8084B1B889342BF
:100A100005D9074B074A0848A52123F099FD074B44
:100A20001980074B1A8008BD602901205E2901202A
:100A30000456020867560208AA5602085C290120DB
:100A40005A2901202DE9F0410D460446194635B9D1
:100A5000154B164A164840F2013123F079FDC0E9E2
:100A600010520368134ED3F89030003A18BF012299
:100A700032709847E569A5B12B681F68337873B168
:100A8000236820465B6B9847236C834207D1616CD7
:100A9000094B28461A883B46BDE8F0411847216CAF
:100AA000F6E7BDE8F08100BFEF56020827570208BD
:100AB000AA560208582901205C290120034690F813
:100AC0007E0018B1586803681B681847704700001B
:100AD000012108B50022084605F0D2FF0A4B186034
:100AE00028B90A4B0A4A28210A4823F031FD00227E
:100AF0000421012006F062F8074B186018B9074B73
:100B0000034A2C21F0E708BDC003002075570208F6
:100B1000BE570208ED570208BC03002037580208F0
:100B2000024B4FF0FF31186805F0F4BFC0030020FE
:100B3000014B186806F01AB8C0030020024B0021D0
:100B4000186805F0E7BF00BFC0030020FFF7F0BF43
:100B500003480449006800231A4606F06AB800BF3B
:100B6000BC0300200400002013B5084C00231A46E3
:100B700001A9206806F08EF820684FF0FF330022AC
:100B800001A906F087F802B010BD00BFBC03002029
:100B900003685B6C18470120704703689B6A18471D
:100BA000FEE740F2EF307047054B0360054B4FF016
:100BB0008062C3F88820BFF34F8FBFF36F8F7047F9
:100BC0007862020800E100E010B504464FF45A6173
:100BD000FFF7EAFF204622F046FC204610BD000049
:100BE00082B0002301930E4B1A6B42F400021A6389
:100BF0001A6B02F400020192019A1A6942F400028F
:100C00001A611A6922F400021A61064B064A5A61F7
:100C1000064A1A61064B4FF080629A6002B0704734
:100C200000380240AC1A0020A10B0008690E000831
:100C300000E100E008B50A2809D8DFE800F0061056
:100C40000E080808081010101000022008BD054BFF
:100C5000054A0648912123F07BFC0020F6E701209D
:100C6000F4E700BF7958020894580208DF580208D8
:100C700070B50C46887FFFF7DDFFA58AE28A114B2D
:100C80002169586342EA05425A64628BD963521B58
:100C90001A642668E568082E0DD19A611A615862B7
:100CA000207F094A42EA0062DA61084A1D625961FE
:100CB000D9601A6070BD0022D8611A61044A9D6330
:100CC000F7E700BF00B00240090001000123020065
:100CD0000123030008B50B280BD8DFE800F006124B
:100CE000100A0A0A0A0808080808022008BD052098
:100CF000FCE7054B054A0648702123F029FC00203B
:100D0000F4E70120F2E700BF7958020827590208EA
:100D1000DF5802082DE9F04191F81D800C4640464D
:100D2000FFF7D8FFA77F05463846FFF7D3FF0646F3
:100D30003846FFF77FFFA18A628B454B521A1A642F
:100D40009A61228B521A1A61E28A586342EA01427E
:100D50005A6421696268D963DA60D4F800C0207FE0
:100D6000BCF1800F4FEA006229D013D8BCF1200FEC
:100D700045EA020064D0BCF1400F61D0BCF1040F21
:100D80005ED0334B154345F40035B845DD615BD08B
:100D9000304A40E0BCF5807F07D0BCF5007FF0D141
:100DA00042F4003242F0090203E042F4003242F021
:100DB0000A02DA61E2681A625E6259612AE0A46896
:100DC0002A4342F40032271DDF62DA6122785E6234
:100DD000596142B1012A21D01F4B204A204840F2DC
:100DE0001B1123F0B5FBDA69618822F47F420139D7
:100DF00022F0100242EA0122DA610121144BDA6981
:100E000042F02002DA61DA699206FCD410229A607C
:100E10000029BDD0134A1A60BDE8F081DA69B0F14B
:100E2000FF01608822F47F4200F1FF3022F01002BF
:100E300042EA002242F0100218BF0121DA61DDE728
:100E400040F40030D861B7E742F20132E3E700BF77
:100E500000B0024001230100715902088B590208B9
:100E6000DF58020801230200024B1B685868036820
:100E70005B6918476429012070B5044625460A4B72
:100E80000C30002660602672667245F8203B6022B6
:100E9000294609F01DFA04F55A63EE6024359D4297
:100EA000FBD1204670BD00BF78620208034B1A6870
:100EB000D207FCD423229A60704700BF00B00240E2
:100EC0007047000030B50F4C2568ED07FCD4232592
:100ED0000904A56041F001010225FF2B65636164EF
:100EE000E0630AD00849656241EA0363E361074BA6
:100EF00022626061E060236030BDE561039BA36313
:100F0000034BF8E700B002400900010001000200B5
:100F10000100030030B50E4C2568ED07FCD42325F5
:100F20001204A56042F001020225FF2B6563626492
:100F3000E063E16008D01B0643F00213E361054B58
:100F400065626061236030BD034BE3610123F9E713
:100F500000B0024001000200020002FF30B50B4C5D
:100F60002568ED07FCD4232512041B06A56043F475
:100F70000033022542F0010265636264E063E160D0
:100F8000E361034B65626061236030BD00B00240E5
:100F900001000200012070470C2070470C2303FB66
:100FA0000100083070470C2303FB01000830704734
:100FB000012070474FF4437070474FF4437303FBB5
:100FC0000100083070474FF4437303FB0100083001
:100FD0007047012070471020704700EB0110083067
:100FE000704700EB011008307047084601F074BCF0
:100FF00010B5034B0360044607F07DFD204610BD8D
:101000003063020810B50446FFF7F2FF20461421B2
:1010100022F029FA204610BD10B5034B03600446A8
:1010200007F069FD204610BDFC62020810B50446B9
:10103000FFF7F2FF20464FF4457122F014FA2046E4
:1010400010BD000010B5034B0360044607F053FDCC
:10105000204610BDC862020810B50446FFF7F2FF33
:101060002046182122F0FFF9204610BD10B5084B8C
:101070000360044600F55070FFF7BAFF04F12C003E
:10108000FFF7CAFF04F11400FFF7DCFF204610BD94
:101090006463020808B50248FFF7E8FF08BD00BF17
:1010A000A012002010B50446FFF7E0FF204640F2F2
:1010B000B44122F0D8F9204610BD0000F7B501F088
:1010C00083FA054601F084FA002401460094234681
:1010D0002246284611F0AEFD284B294A1A602046C8
:1010E00002F016F8274B284A28489A6011F008FDAC
:1010F000274C2368BFF35B8FDB0738D4204622F0F0
:10110000B4F9002833D0234A234B136002F12C0793
:1011100002F5567502F5507602F1140097605060A2
:10112000D660156107F0E8FCA5F5567238461B4BF2
:1011300053612C3F07F0E0FC194BFB62304607F08F
:10114000DBFC184BC7F8403307F5557002F064F824
:101150003A4607F55571284602F054F8284601F042
:10116000BBFB114823F012FA204622F08AF90F48FF
:1011700003B0BDE8F040FFF7D5BB00BFC029012098
:101180004C0400206C0400205004002008000020C3
:101190009C120020A012002064630208C8620208AA
:1011A000FC6202083063020895100008C4030020A6
:1011B000704700000148FFF7C3BB00BFC403002015
:1011C00070B5274E274C284D284B23603046FFF73B
:1011D00053FE284616F0B2FF25480FF021FA254BA2
:1011E0002548DC6000224FF48071C3E913122349C3
:1011F0001A63C3E91B1222499A86C3E91F012149D8
:10120000C3F884102049214883F85C20C3E90422F4
:10121000C3E90622C3E90822C3E90A22C3E90F226F
:10122000C3E91122C3E91522C3E918229A6683F89B
:1012300074209A67C3E901650B60F02101801448AE
:10124000018014484FF4A0710180134801801349B4
:101250000A70012283F83820114A1A6070BD00BF5D
:10126000F8040020981200206C040020F4550208B5
:1012700050040020C403002000000101010000010F
:10128000000450001A001400642901206029012084
:101290005C2901205E2901205A29012056290120BC
:1012A0008C6102080148FFF77FBC00BFF8040020F2
:1012B0000020704781807047C1807047018170476E
:1012C000418170477047704770477047704710B44E
:1012D000C4880368121B84885B6D091B12B25DF819
:1012E000044B09B218474FF6FF7383814FF0FF3369
:1012F00003621368C36110607047002070478B88D9
:10130000838001207047704780F82610704790F85E
:101310002600704710B50022B1F90840B1F90A1053
:10132000028042808480C18010BD00220280428001
:101330008280C28070470177704780ED080A70474D
:1013400080F82410704780F82510704701207047FE
:10135000983070478C3070478430704770477047C2
:1013600070470000034B902283F85A2383F85823D8
:10137000704700BF00E100E0094A0A49D3680A4803
:10138000C3F30A03013B9BB20B801169C1F30A014D
:10139000013901801364536B43F0010353637047B9
:1013A000006801405617002054170020014BD3F865
:1013B000AC00704700680140024B0122C3F8AC103A
:1013C0005A6270470068014010B52C21044622F093
:1013D0004AF8204610BD10B5BC21044622F043F85F
:1013E000204610BD70B5044608F051F823689D6E84
:1013F0000DF0ACFE01462046A8472368054AD3F805
:101400008C502046AC460023BDE87040A2F5163152
:10141000604700BF00B004D008F020B808F02AB838
:1014200007F0E5BF08F051B990F8252012B1036824
:101430005B691847704790F825201AB190F824206E
:1014400002B1186070470000034B4FF080629A6051
:101450004FF080729A60704700E100E0084B4FF057
:101460008062C3F88820BFF34F8FBFF36F8F4FF0B8
:101470008072C3F88820BFF34F8FBFF36F8F704720
:1014800000E100E070B50023124E8380124B036030
:10149000336893F85C2005460AB1186D00B9986866
:1014A00003681B6B98473368B0FA80F4186D6409C1
:1014B00030B103681B6B9847002808BF44F0010453
:1014C0002CB9064B064A07482C2123F041F8284640
:1014D00070BD00BF6429012078630208C959020861
:1014E000275A0208605A020870B5254E3568BFF3C6
:1014F0005B8F15F0010540D1304621F0B6FF002882
:101500003BD0204C204B256104F13400C4E9003568
:10151000C4E90255E584A562A5850FF068FB04F1D6
:1015200058000AF093FB194BA3652046184B40F86E
:10153000843BFFF7A7FF174BC4F884302433C4F86B
:101540008C304FF4C803C4E928350023C4F8AC300C
:10155000C4F8B030C4F8B430C4F8B8300E480F4BFB
:10156000C4F89050C4F89C50C4F8A850C4F89830FF
:1015700023F00CF8304621F084FF024870BD00BF14
:10158000581700205C170020406A02089863020880
:1015900010640208F469020861130008D4690208A3
:1015A00038B5184C23685BB3174B184A1B6C11886D
:1015B0008B4216D1164B198803F0A6FB236893F8CB
:1015C0006E200025013283F86E2083F88050FFF7EB
:1015D000BFFA206808F012FD2846BDE83840FFF742
:1015E000E3B803F091FB2468236820461B6A984700
:1015F000012384F880300020BDE83840FFF7FEB8B2
:1016000038BD00BF64290120006801405617002042
:1016100054170020FEE7000007B5064BADF80600A2
:101620001B68054801220DF1060104F01DF903B005
:1016300000BD00BF0C0000205819002030B595B047
:10164000102200210AA823F08DF91422002103A8FA
:1016500023F088F900241E4B01941A6C42F080524A
:101660001A641B6C03F080530193019B194B029485
:101670001A6842F440421A601B6803F44043029324
:101680000122029B4FF48033CDE9082302254FF459
:1016900080030821CDE90E534FF4B473CDE9101344
:1016A00008A804231393129503F086FB03F04AFB6A
:1016B0000F23CDE903354FF4A0504FF48053CDE90B
:1016C0000603052103A8059403F052FD15B030BDB3
:1016D000003802400070004080B59CB00024C04D2E
:1016E00002F0F6F8FFF7AAFF142200210FA823F05A
:1016F00039F902942B6BBB4843F010032B632B6B1F
:1017000003F010030293029B03942B6B43F020031E
:101710002B632B6B03F020030393039B04942B6B2D
:1017200043F080032B632B6B03F080030493049B33
:1017300005942B6B43F004032B632B6B03F0040322
:101740000593059B06942B6B43F001032B632B6BD6
:1017500003F001030693069B07942B6B43F00203EF
:101760002B632B6B03F002030793079B08942B6BEF
:1017700043F040032B632B6B03F040030893089B5B
:1017800009942B6B43F008032B632B6B03F00803C6
:10179000224609933C21099B02F0C2FC9248012297
:1017A000022102F0BDFC22468F48042102F0B8FC61
:1017B00022468E484FF4405102F0B2FC22468C483B
:1017C0004FF4005102F0ACFC01263C23CDE90F366A
:1017D0008448119403230FA90227129302F0B6FB49
:1017E00081480FA9CDE90F76CDE9114402F0AEFB97
:1017F00004237D480FA9CDE90F36CDE9114702F04A
:10180000A5FB4FF4405379480FA9CDE90F36CDE938
:10181000114702F09BFB4FF4005375480FA9CDE927
:101820000F36CDE9114402F091FB01942B6B43F488
:1018300000132B632B6B03F4001305212246019345
:101840001020019B02F096F8102002F0C5F8694ABA
:10185000694B1360104602F0CDF8684A684B13607C
:10186000684BD460C2E9013410464FF48043C2E9AA
:101870000434C2E90644146202F06CFE10215F4891
:1018800003F0AEF821465D4803F0C9F85E4A5F4BAD
:1018900013604FF48273C2E901344FF400711823CE
:1018A000C2E9061310460A23C2E90344C2E9084408
:1018B00054619462D36203F07BFF8F232246394642
:1018C00049488DF82C308DF83C4002F029FC324616
:1018D0004FF47A730BA94C4803F0C6FF4FF47A73A8
:1018E00032460FA9484804F06BF9324639463E4863
:1018F00002F016FC9DF83C30454AD32B04BF454B03
:101900001E70454B136004271023C2E90373402166
:101910004FF4C0730024C2E905134FF40063C2E919
:1019200008344FF40053012502264FF00309936257
:101930000FA907231046CDE90F63CDE911734FF0CE
:101940000808C2E90154CDE91396D461159603F055
:1019500013FE4FF6FF720BA92D480B95CDE90C85B0
:101960000A940E9403F028FE284601F0DDFF4FF69E
:10197000FF720BA92648CDE90D54CDE90B6803F0A1
:101980001BFE4FF6FF720BA92148CDE90B98CDE95C
:101990000D7403F011FE4FF40C730A930A9B1C485C
:1019A0000E934FF6FF720BA90D95CDE90B7803F05E
:1019B00003FE40F26A51164803F01CFE2146342211
:1019C0000FA822F0CFFF154A154B1461C2E900346D
:1019D0000923C2E905351D23C2E9073922E000BF0A
:1019E000003802400010024000080240000C024093
:1019F00000180240EC1A002000300240581A002063
:101A0000005C0040A08601005819002000500140F1
:101A10003418002024180020400100A0B019002034
:101A20000068014040F20D1040F2431340F2171CD1
:101A3000C2E9090340F247131046C2E90BC3C2E9E9
:101A40000244948682F8364003F07CF8FF214FF47C
:101A5000806EF022CDE914140521CDE916E14FF492
:101A6000A0730FA9CDE91024CDE918424948DFF849
:101A700068911A932246CDE912360F94ADF86C4066
:101A80008DF86E4003F012F9434BC9F800301B6823
:101A90009847D9F80030DFF84491DB6898473F4A0F
:101AA0003F4B1046C2E90034C2E90264C2E90A466B
:101AB000C2E90C4402F050F929463848394D02F089
:101AC00001FA1C2221460FA822F04CFF40F20773B6
:101AD000C5E9009340F6C313C5E9033428468023C3
:101AE000AB61AC6004F0E4FA40F2E2436022CDE97D
:101AF0000F230FA9224628461194139404F034FBB7
:101B00002146284604F008FC2A68D36843F0010304
:101B1000D360284600F01AFB234A244B13604FF48D
:101B2000E133C2E9013410460C23C2E90534C2E9AD
:101B30000344D46104F080FCFEF76AFDFEF767FD04
:101B4000284600F0E3FA1A491748324604F071FEBD
:101B500004F026FF174A3946384605F02FF8164B91
:101B6000224618603946404605F028F8134B144ABF
:101B700018602146134804F03FFF134B134A1860C6
:101B80002146134804F038FF124B186004F01AFF86
:101B9000FEE700BFB019002018000020AC1A00209A
:101BA00000B0024010190020C81800200044004076
:101BB0001C18002054640208281800202018002057
:101BC0009064020815160008301800206C640208A2
:101BD0001F0600082C1800201818002000400140A3
:101BE000704770477FB5084B8DF817201B6802932C
:101BF0000DF117020123009201930A4601460348A2
:101C000002F050FD07B000BD10000020581A00205F
:101C10007FB500238DF81730084B1B6802930A46E6
:101C200001230DF11701009101930146044802F0D0
:101C3000C9FD9DF8170007B000BD00BF10000020CF
:101C4000581A00201FB5084C24680092CDE90134D1
:101C50000A4601230146054802F0B4FD003818BFCA
:101C6000012004B010BD00BF10000020581A002051
:101C700001F05ABE08B506480022042102F050FACD
:101C8000BDE8084002480122042102F049BA00BF21
:101C90000008024010B5012204464FF400510948E3
:101CA00002F03EFA00220421074802F039FA2046E9
:101CB000FFF7B2FCBDE8104003480122042102F006
:101CC0002FBA00BF000C02400008024010B50022ED
:101CD00004464FF40051094802F022FA0022042180
:101CE000074802F01DFA2046FFF796FCBDE81040B9
:101CF00003480122042102F013BA00BF000C024085
:101D00000008024037B505460C461248002204215F
:101D100002F006FA00224FF400510F4802F000FAD8
:101D20002846FFF779FC0D4B0D481B68224601A998
:101D300003F046FF0848019C01224FF4005102F0D5
:101D4000EFF904480122042102F0EAF9204603B029
:101D500030BD00BF00080240000C02400C00002013
:101D60005819002001F0E0BD0268034B9A4201D1EE
:101D700001F0C8BD704700BF001000407047000070
:101D800082B00E4B00220092596C41F4804159649C
:101D9000596C01F48041009100990192196C41F055
:101DA000805119641B6C03F080530193019B0F2138
:101DB0006FF0010002B001F0DDBD00BF003802404D
:101DC0000268094B9A4282B00BD100230193074B62
:101DD0001A6B42F480521A631B6B03F48053019315
:101DE000019B02B0704700BF003002400038024043
:101DF00007B50E4B02689A4216D10022A3F5F043B4
:101E00000192196B41F4000119631B6B03F4000389
:101E1000019305215A20019B01F0ACFD5A2003B02B
:101E20005DF804EB01F0D8BD03B000BD00B0024086
:101E30002DE9F043044689B01422002103A822F0C2
:101E400091FD2268244B9A4243D1244C244800251A
:101E50000095236B43F004032363236B03F0040317
:101E60000093009B0195236B43F001032363236BD5
:101E700003F001030193019B4FF012094FF400732B
:101E80004FF001080327042603A9CDE90339CDE962
:101E90000587079602F05AF84FF4807311480796A9
:101EA00003A9CDE90339CDE9058702F04FF8029582
:101EB000236C43F400032364236C03F400030293B4
:101EC000029B236A43F400032362236A23F4000382
:101ED000236209B0BDE8F083005C00400038024096
:101EE0000008024000000240F0B599B004461422F8
:101EF000002107A822F036FD30220DEB0200002160
:101F000022F030FD22685E4B9A4240F0B7800823F1
:101F10000C93C0231093042312930CA84FF40033A6
:101F2000159303F0FDF908B1FFF728FF554B56480C
:101F3000002400945A6C42F080625A645A6C02F099
:101F400080620092009A01941A6B42F020021A6398
:101F50001A6B02F020020192019A02941A6B42F06D
:101F600001021A631A6B02F001020292029A0394B0
:101F70001A6B42F002021A631A6B02F00202039219
:101F8000039A04941A6B42F040021A631A6B02F02F
:101F900040020492049A05941A6B42F004021A63F8
:101FA0001A6B02F004020592059A06941A6B42F02D
:101FB00008021A631B6B03F00803069302250E2622
:101FC000069B0B964FF4806307A9CDE90735CDE951
:101FD000094501F0BBFF41F658032C480B9607A9B1
:101FE000CDE907350927CDE9094501F0AFFF032306
:101FF00027480B9707A9CDE90735CDE9094501F039
:10200000A5FF4FF4706322480B9607A9CDE9073569
:10201000CDE9094501F09AFF4FF40C631D480B967A
:1020200007A9CDE90735CDE9094501F08FFFC023A8
:1020300019480B9607A9CDE90735CDE9094501F007
:1020400085FF082315480B9607A9CDE90735CDE98B
:10205000094501F07BFF4FF4A0530E480B9707A9E9
:10206000CDE90735CDE9094501F070FF582022463A
:10207000052101F07FFC582001F0AEFC19B0F0BD45
:102080000068014000380240001402400000024095
:10209000000402400018024000080240000C024008
:1020A00010B5044688B01422002103A822F05AFC7F
:1020B0002268144B9A4223D103F568430021019111
:1020C0005A6C114842F480125A645A6C02F480121D
:1020D0000192019A02911A6B42F020021A631B6B63
:1020E00003F020030293029B4FF46072022303214A
:1020F000CDE903230523CDE9061303A901F026FF4B
:1021000008B010BD005001400014024007B50E4B4E
:1021100002689A4216D1002203F578430192596C65
:1021200041F4803159645B6C03F4803301930521E1
:102130001820019B01F01EFC182003B05DF804EB91
:1021400001F04ABC03B000BD0040014010B5044698
:1021500086B01422002101A822F004FC22680E4B54
:102160009A4216D1002300930C4B0D481A6B42F093
:1021700001021A631B6B03F001030093009B04220E
:102180000223CDE90123049301A90323059301F060
:10219000DDFE06B010BD00BF004001400038024027
:1021A0000000024070B5064688B01422002103A842
:1021B00022F0D8FB3268244B9A4242D1002503F525
:1021C000FA3301951A6C2148214C42F400321A640A
:1021D0001A6C02F400320192019A02951A6B42F0D5
:1021E00008021A631B6B03F008030293029B602230
:1021F0000223CDE9032303210723CDE9061303A915
:1022000001F0A4FE13484FF00063C4E900034FF44B
:1022100080632046C4E90255C4E90435C4E9065583
:10222000C4E9085501F00CFC08B1FFF7A7FD262012
:10223000F46300220521A66301F09CFB262001F037
:10224000CBFB08B070BD00BF00440040000C024052
:1022500068180020886002402DE9F04186B0002314
:1022600003932B4B1C68002C4FD14FF00108C3F88F
:102270000080284B00949A6B274842EA08029A6330
:102280009B6B03EA08030093022703260C25009B9F
:1022900001A94FF63F03CDE90137CDE9046501F00F
:1022A00055FE1E48059501A9CDE90187CDE90346F4
:1022B00001F04CFE48F233131948059501A9CDE908
:1022C0000137CDE9034601F041FE4FF6837315480F
:1022D000059501A9CDE90137CDE9034601F036FEA8
:1022E0004CF203731048059501A9CDE90137CDE9FA
:1022F000034601F02BFE60230C48059501A9CDE9AA
:102300000137CDE9034601F021FE06B0BDE8F081BA
:10231000F41A002000380240001402400008024075
:102320000018024000100240000C0240000402406D
:1023300030B589B000230293204B1A6C42F0100292
:102340001A641B6C03F010030293054601A903A84D
:10235000029B02F0C7FF069B4BBB02F0A3FF184A8B
:10236000184B136040F2E733D360174BB0FBF3F325
:10237000013B53601046002313619360936103F0A7
:102380006BFE044680B90E4803F040FD044658B980
:10239000362001F021FB0F2D0DD82246294636208C
:1023A00001F0E8FA094B1D60204609B030BD02F08B
:1023B00079FF4000D3E70124F6E700BF0038024070
:1023C000F81A00200010004040420F00800000205A
:1023D0007047FEE7FEE7FEE7FEE77047014801F0C1
:1023E000FDBB00BF6818002010B51D4C21680B69AB
:1023F000DB0722D5CB68D8071FD56FF001030B612F
:10240000184B1B689BB2642B25D833B3C3F164000F
:1024100058430001144AB2FBF0F24FF6FF708242BB
:1024200028BF024664205343B3FBF0F3501E9A4288
:1024300098BF0346C862E0604B63094803F024FD7F
:1024400023681A69910705D5DA68920744BF6FF0CF
:1024500002021A6110BD6423D8E74FF6FF72E1E76C
:10246000101900201400002000E1F505014804F0D7
:1024700077B800BFC8180020014803F005BD00BFB1
:10248000F81A0020014802F0B4BB00BFB0190020C8
:10249000014801F08DBC00BFAC1A002002680F4B50
:1024A0009A4213B517D10E4C0E480222214604F071
:1024B000C0F9627823780C4803EB02236422B3FB53
:1024C000F2F30A4A006813601368019300231A4666
:1024D00001A904F0AEFB02B010BD00BF00440040F3
:1024E0001C180020C818002020180020140000200C
:1024F0000120704708B522F093FA162303604FF0CD
:10250000FF3008BD08B522F08BFA16230360FEE702
:1025100070B50D4614460E46731B9C4201DC2046E6
:1025200070BDAFF3008006F8010BF5E770B50D46FE
:1025300014460E46731B9C4201DC204670BD16F803
:10254000010BAFF30080F5E74FF0FF3070474FF419
:1025500000534B60002070470120704700207047F7
:10256000094A08B50346106808B9084810600344D2
:1025700069468B4206D922F053FA0C2303604FF0D0
:10258000FF3008BD1360FCE7401B0020A03601208F
:10259000704710B50421044620F065FF204610BDA9
:1025A000012908B506D0022908D059B900F0FCFD70
:1025B000006808BD00F0F8FD4068FAE700F0F4FD9F
:1025C0008068F6E70020F4E700487047C864020816
:1025D0000520704713B5002451B1036801948DF8AC
:1025E000034001AA9C680DF10303A04702B010BD8F
:1025F0000846FBE7C0897047008A7047C08870476B
:1026000080887047807A00F07F007047807AC00928
:1026100070470020704700009FED010A704700BF1F
:1026200000000000704710B50821044620F01BFF91
:10263000204610BD7047704700F5987308684968D8
:1026400003C37047704770474160704770477047D9
:10265000064BC0F84C310023C0F8503100F5A2738E
:10266000C0F84801C0F84031704700BF0D2700088E
:102670000123037270477047D0E90232416810B4F9
:10268000541001EB6200D20748BF0A595DF8044BB1
:1026900048BFD35818470346406830B19A681AB902
:1026A000D86800F0010070470120704710B50C2178
:1026B000044620F0D8FE204610BD10B51021044677
:1026C00020F0D1FE204610BD10B54FF4AE71044687
:1026D00020F0C9FE204610BD10B50CF037FD036890
:1026E000BDE81040DB6B184710B50446D0F8400138
:1026F00058B10368DB68984738B1D4F840010368E3
:102700009B6898470023C4F8403110BD2DE9F14F74
:10271000D0E9556A0746B06803681B6A9847B0F568
:10272000437F05D2444B454AA321454821F010FF81
:10273000706803681B6A98470F2803D8414B3F4ACB
:10274000A421F2E7F06803681B6A98470B2803D8B6
:102750003D4B3A4AA521E8E70CF0F8FCDFF8F09091
:1027600004300CF033FDD9F8000010B10368DB68C9
:102770009847D9F8000010B103681B689847DFF844
:10278000D480D8F8000010B103685B699847D7F887
:102790003C0110B103685B689847D8F8000010B19D
:1027A00003681B689847D7F83C0110B103689B6821
:1027B0009847F068036800215B6A98474FF0000B68
:1027C000224BC0F804B0044680F808B00360B0683B
:1027D000036859465B6A9847054600F077FD7068C4
:1027E000036859465B6A98472946064600F04CFD47
:1027F000331DC7F83C61C9F80040C8F80050CAF85A
:1028000000302B68C6F808A02846DB68EE639847BE
:10281000336830461B689847214628460EF0DBFE99
:10282000236820461B69984723685B69204601B0EE
:10283000BDE8F04F184700BFE35A0208715B020879
:10284000435C02088A5C02082D5D0208B06502083C
:10285000AC290120B0290120044B1B6893F85C20AF
:102860000AB1186D00B99868704700BF642901204B
:10287000F8B5174604460E460CF07AFD124B1C6064
:10288000124B2360124B0025C4E95135114BC4E9AA
:1028900053551868036801219B68C4E94F55C4E982
:1028A00055769847284600F033FCFFF7D5FF17F020
:1028B000F4FAFFF7D1FF17F06BFBFFF7CDFF17F02E
:1028C00073FB2046F8BD00BFB42901205C650208F7
:1028D0004465020864290120064BC0F84C310023EE
:1028E000C0F8503100F5A273C0F84801C0F840317B
:1028F000704700BF0D270008406A7047806A704724
:1029000070478A880B8810B5D20A4C88C1699BB27F
:1029100051F8220043EA0443184410BD10B50446A0
:10292000BAB1107B68B1537BD27A1B0203F4E06327
:102930001A43236A03EB82031A888A4202D193F96D
:10294000020010BD05D8013880B204330028F3D14D
:10295000F7E70020F5E710B52C21044620F083FDB1
:10296000204610BD30B58BB00446BDF860500895C8
:10297000BDF85C5007959DF8505006959DF84C5059
:1029800005959DF8485004959DF8445003959DF891
:10299000405002959DF83C500195BDF83850009587
:1029A0000EF0E2F9064B2360159BE361169B236250
:1029B000199B63621A9BA36220460BB030BD00BF17
:1029C000D46502087047704770477047704730B54C
:1029D000036885B0D3F88430018104460146684617
:1029E00098479DE807003C3484E8070005B030BDF7
:1029F00030B5036885B0D3F8843041810446014680
:102A0000684698479DE807003C3484E8070005B015
:102A100030BD0022028042808280C280704780F8F0
:102A20003610704770B5036804461B6B154698470F
:102A30002368294620465B6EBDE870401847002099
:102A40007047806C70477047704770477047704799
:102A50007047D0E9023230B44468551004EB62008C
:102A6000D20748BF625930BC48BFD3581847034605
:102A7000406830B19A681AB9D86800F00100704710
:102A80000120704710B54C21044620F0ECFC204694
:102A900010BD10B51021044620F0E5FC204610BD05
:102AA00010B54FF44371044620F0DDFC204610BD04
:102AB00008B5FEF7B9FC08BD00F51673994270B56C
:102AC00004460D4602D10368DB6A984704F5287373
:102AD0009D4205D1236820461B6BBDE87040184716
:102AE00070BD0000036870B55E6B124B1B68044636
:102AF0008DB22BB9104B114A6C21114821F028FDE1
:102B00001049828D0988914203D80F4B0B4A6D21E1
:102B1000F3E713F812200D4B1B6853F822000368EB
:102B20001B6B9847291A3346204609B2BDE870400E
:102B3000184700BFC4290120D05D0208125E0208B8
:102B40004D5E0208B8290120945E0208BC290120CC
:102B500000224FF0FF31C0E900218260704770B55C
:102B6000036804461B6B1546984723682946204690
:102B70005B6BBDE87040184770B504461D46BDF953
:102B80001060FFF7ECFF2368294620469B6B9847AF
:102B9000236831462046DB6BBDE8704018470000D3
:102BA000F8B5194B018F1B888B4206462AD9174B63
:102BB0001B682BB9164B174A17486C2121F0C8FC2B
:102BC00013F81120154B1B6853F82250144B18684A
:102BD00000F0DAFA2B6807469B6B284698472B686B
:102BE00004469B6C3946284698472B6814FB00F432
:102BF0005B6A394628469847A4B223181BB2A6F848
:102C00004630F8BD0023FAE7B8290120C429012085
:102C1000D05D0208125E02084D5E0208BC29012048
:102C2000C02901202DE9F04F04468BB00EF038FB8F
:102C3000934B2360934B2364002504F16C064FF4FF
:102C40008077FF236766304684F86630C4E9115503
:102C5000C4E91355C4E91555C4E91755E563A566DC
:102C600009F0B2F9884BC4F834324FF6FF73A4F878
:102C700038324FF47F03C4F840324FF0FF39834BB2
:102C8000C4F80C3204F5167AC4F83072C4E98455DD
:102C9000C4E98655C4E98855C4E98A55C4E99395C1
:102CA000C4F83C52A4F84452C4F84852C4F85452F0
:102CB000504604F5287809F075FD404609F072FD8C
:102CC000734BC4E9BF34734B04F1400BC4E9C13505
:102CD0004FF4A0732A46584600932946F023FFF785
:102CE0004BFF271D4FF07F435946A366384606F039
:102CF000DEF84FF0AE0B4FF00303304608A9ADF8F5
:102D0000203006F067F8F0233046CDF800B02A46B0
:102D10002946FFF731FF78221146304609F0F8F9CD
:102D2000304670226FF0700109F068FA2B46642279
:102D300030462946009505F0F5FE3046322109F06F
:102D400013FA432307223046042109F0CDF9304617
:102D5000012109F06BF93046012109F06AF9314689
:102D6000384604F5037606F0A2F85A461F2130468D
:102D7000FFF7F5FE484BC4F83C32D4F80C32A4F807
:102D800040520DF1080B5846D3F88430314698472D
:102D90009BE8070004F5127383E807003F4B1B68AC
:102DA00004F53A7B2BB93E4B3E4A60213E4821F068
:102DB000CFFB3E4B1B881BB93D4B3A4A6121F5E7DF
:102DC0003C4B2946186800F0DFF93B4A03460A21CC
:102DD00058460FF088FEC4F854B2304609F02CF87B
:102DE000294B089308A94FF003033046ADF824306F
:102DF00009F042F83146384606F059F850464FF48B
:102E000087728221FFF7ABFE0226012308AA07A9D9
:102E10005046ADF81C3004F53F7BADF8206009F05A
:102E200002FA5046A4F89062FFF7BAFE51463846BF
:102E3000C4E9A599C4F880B206F039F8294640469D
:102E40004FF48772FFF78BFE08AA07A94046ADF83A
:102E50001C50ADF8206009F0E6F90123A4F8D8323F
:102E60004046FFF79DFE3846C4E9B799C4F8C8B29A
:102E7000414606F01CF820460BB0BDE8F08F00BFBD
:102E8000E4660208046B0208346502083C66020826
:102E9000CC660208B92A000817FF00FFC4290120E8
:102EA000D05D0208D25E02084D5E0208B8290120FA
:102EB000945E0208C02901201D5F020870470000CF
:102EC00030B5164D8FB02C68BFF35B8F14F0010442
:102ED00020D1284620F0C9FAE0B13F230993104BD6
:102EE0000893104B104911480A940122CDE906437A
:102EF0000423CDE903320A230093CDE90B44CDE945
:102F000001440594FFF72EFD094821F03FFB2846B8
:102F100020F0B7FA05480FB030BD00BF441B0020B9
:102F2000E0810208EC81020860800208481B002052
:102F3000BD2E00087047000030B5164D8FB02C68CC
:102F4000BFF35B8F14F0010421D1284620F08DFAE5
:102F5000E8B13F230993104B0893104B10491148D7
:102F60000A94CDE9064301220423CDE90332142358
:102F700000931922CDE90B44CDE901440594FFF7F4
:102F8000F1FC094821F002FB284620F07AFA0548B6
:102F90000FB030BD741B0020E4810208F0810208EC
:102FA00070800208781B0020352F00087047000051
:102FB00030B5164D8FB02C68BFF35B8F14F0010451
:102FC00020D1284620F051FAE0B13F230993104B5D
:102FD0000893104B104911480A940122CDE9064389
:102FE0000423CDE9033228230093CDE90B44CDE936
:102FF00001440594FFF7B6FC094821F0C7FA2846BA
:1030000020F03FFA05480FB030BD00BFA41B0020E0
:10301000E8810208F4810208D0810208A81B002080
:10302000AD2F000800207047002070470EB403B594
:1030300003AB002153F8042B01930DF019F902B0F2
:103040005DF804EB03B070470CB407B504AB53F85C
:10305000042B01930DF00CF903B05DF804EB02B002
:1030600070470000436C10B5044673B3038F2BB94F
:10307000184B194AC521194821F06AFAC38E00EB92
:1030800043035B8C0BB30EF0CBFF238F012B03D8D4
:10309000134B144ACB21EEE7E28E531C9BB2092B53
:1030A000194688BFA3F10A0104EB410140F63F1025
:1030B000498C814209D10A2B04EB420228BF00232C
:1030C00004EB4303508C588451842046BDE81040E3
:1030D0000EF0A9BE205F0208295F0208D45F020833
:1030E0001E6002082C6002080EF065BE10B586B0A6
:1030F00002AC84E806001A460AAB05930193099BCB
:1031000000932146089B0BF096FB06B010BD000013
:1031100038B518BB124B13481C681349B4B1226868
:1031200022440260626822440A60A26814440F4B81
:1031300000221A8000F038F8054600F033F80C4BF6
:103140001C600C4B1D600C4B188007E00B4B0360A0
:103150000B4B0B600B4B1C68002CE8D138BD00BF3B
:10316000E01B0020D81B0020D41B0020DC1B00200B
:10317000C4290120BC290120B829012008820208A5
:10318000F881020818670208044B1B6853F82100F5
:10319000034B1B6803EB4000704700BFD41B0020AB
:1031A000D81B00200420704700487047E41B002013
:1031B00010B5FFF7C1FE044C2060FFF7F9FE606018
:1031C000FFF77EFEA06010BDE41B002010B50024B8
:1031D00004600C6014601C6010BD704710B54FF4A3
:1031E000AE71044620F03FF9204610BD10B50446EC
:1031F000D0F8580100F014F82046BDE810400CF05B
:1032000047B8000010B50446FFF732FB014B2360BE
:10321000204610BD246702080022026070470000AB
:1032200013B504460748002300681A4601A903F0B5
:1032300031FD28B9206818B1036801999B68984747
:1032400002B010BD20180020014B00221A60704708
:10325000F01B002070470438704783680430186002
:103260007047704710B51021044620F0FCF8204646
:1032700010BDA0F10400F5E7C06800F03BB8A0F174
:103280000400FFF7F9BF000000228260024A0260DA
:103290001C324260C16070477867020870470000C6
:1032A00010B5034B03600446FFF7D1FB204610BD69
:1032B000A867020810B50446FFF7F2FF20464FF456
:1032C000437120F0D0F8204610BD000010B5044630
:1032D000FFF7A8FC014B2360204610BDA867020839
:1032E00010B50446FFF7B4FB014B1C6010BD00BFD6
:1032F000F41B002070B500F16C06044630460D4604
:1033000008F032FF304604F53A760DF0D9F82B4636
:10331000074A0A2130460FF0E6FB04F50374A66461
:10332000204608F089FD2046BDE870400DF0C8B881
:10333000FE600208064A13889BB25E2B9FBF13886B
:1033400005339BB21380118889B2FFF7D3BF00BF4A
:1033500014000020064A13889BB2052B81BF1388F6
:10336000053B9BB21380118889B2FFF7C3BF00BF32
:1033700014000020F02070474FF4A07070472920FF
:10338000FEF7A4BC2820FEF7A1BC08B5FEF772FC2E
:10339000CA20FEF79BFCC320FEF77CFC0820FEF74A
:1033A00079FC5020FEF776FCCF20FEF78FFC002042
:1033B000FEF770FCC120FEF76DFC3020FEF76AFCC2
:1033C000ED20FEF783FC6420FEF764FC0320FEF78B
:1033D00061FC1220FEF75EFC8120FEF75BFCE8201A
:1033E000FEF774FC8520FEF755FC0020FEF752FC2A
:1033F0007820FEF74FFCCB20FEF768FC3920FEF763
:1034000049FC2C20FEF746FC0020FEF743FC34204C
:10341000FEF740FC0220FEF73DFCF720FEF756FCCD
:103420002020FEF737FCEA20FEF750FC0020FEF7D4
:1034300031FC0020FEF72EFCB120FEF747FC0020F7
:10344000FEF728FC1B20FEF725FCB620FEF73EFC0D
:103450000A20FEF71FFCA220FEF71CFCC020FEF78E
:1034600035FC1020FEF716FCC120FEF72FFC1020C3
:10347000FEF710FCC520FEF729FC4520FEF70AFCEC
:103480001520FEF707FCC720FEF720FC9020FEF772
:1034900001FC3620FEF71AFCC820FEF7FBFBF220E9
:1034A000FEF714FC0020FEF7F5FBB020FEF70EFC43
:1034B000C220FEF7EFFBB620FEF708FC0A20FEF75D
:1034C000E9FBA720FEF7E6FB2720FEF7E3FB04203D
:1034D000FEF7E0FB2A20FEF7F9FB0020FEF7DAFBFF
:1034E0000020FEF7D7FB0020FEF7D4FBEF20FEF70D
:1034F000D1FB2B20FEF7EAFB0020FEF7CBFB0020E0
:10350000FEF7C8FB0120FEF7C5FB3F20FEF7C2FB1C
:10351000F620FEF7DBFB0120FEF7BCFB0020FEF7E8
:10352000B9FB0620FEF7B6FB2C20FEF7CFFBC82028
:10353000FEF718FC2620FEF7C9FB0120FEF7AAFBC8
:10354000E020FEF7C3FB0F20FEF7A4FB2920FEF7C7
:10355000A1FB2420FEF79EFB0C20FEF79BFB0E2018
:10356000FEF798FB0920FEF795FB4E20FEF792FB35
:103570007820FEF78FFB3C20FEF78CFB0920FEF73E
:1035800089FB1320FEF786FB0520FEF783FB17203F
:10359000FEF780FB1120FEF77DFB0020FEF77AFB93
:1035A000E120FEF793FB0020FEF774FB1620FEF7E8
:1035B00071FB1B20FEF76EFB0420FEF76BFB112056
:1035C000FEF768FB0720FEF765FB3120FEF762FB84
:1035D0003320FEF75FFB4220FEF75CFB0520FEF781
:1035E00059FB0C20FEF756FB0A20FEF753FB282060
:1035F000FEF750FB2F20FEF74DFB0F20FEF74AFB96
:103600001120FEF763FBC820FEF7ACFB2920FEF774
:103610005DFBBDE808402C20FEF758BB08B5FEF75F
:1036200029FB0321D320FEF76DFB80B208BD10B546
:10363000C4B2022203212046FEF7D4FA0A20FEF784
:1036400017FB204600220321FEF7CCFABDE810400C
:103650000220FEF70DBB38B50446E4B2FEF7C0FA0F
:1036600000212046FEF7D4FA012105462046FEF748
:10367000CFFA40EA052080B238BD10B5C4B240216F
:103680002046FEF7C5FA030607D54C212046FEF773
:10369000BFFA003818BF012010BD01224B2120467F
:1036A000FEF7A0FA204600224B21FEF79BFA0020ED
:1036B000F2E773B50423C4B20E461546D7210DEBCD
:1036C00003022046FEF7BEFA019B1BBA1A0DC3F394
:1036D0000B23328020462B8001224B21FEF782FAF9
:1036E00000224B212046FEF77DFA02B070BD00009B
:1036F00010B50A4A1378984204460DD05178884292
:103700000AD00BB141B90123D454FEF769FA20461F
:10371000BDE81040FFF78BBF10BD00BFF81B0020B5
:1037200010B5C4B209212046FEF772FA40F001023A
:10373000D2B220460921BDE81040FEF753BA10B5B9
:10374000C4B209212046FEF763FA092100F0FE0207
:103750002046BDE81040FEF745BA38B5C4B20D4664
:1037600020460A21FEF754FA40EA0502D2B220466A
:103770000A21BDE83840FEF735BA10B50446FEF719
:1037800030FA20461F21FFF7E8FF2046BDE8104031
:10379000FFF7C6BF38B5C4B20D4620460A21FEF772
:1037A00037FA20EA0502D2B220460A21BDE83840A5
:1037B000FEF718BA10B50446FFF7C1FF20461F21D7
:1037C000BDE81040FFF7E6BF10B5C0B20C460B21B4
:1037D000FEF71EFA204010BD1F21FFF7F5BF0A4675
:1037E000C0B20B21FEF7FEB91F21FFF7F8BF38B5B5
:1037F000C4B20D4620461721FEF70AFA20EA050258
:10380000D2B220461721BDE83840FEF7EBB970B5BB
:10381000C4B2064604212046FEF7FAF9042100F05E
:10382000FB0205462046FEF7DDF93046F021FFF7A2
:10383000DEFF05F0F80220460421FEF7D3F9492205
:1038400020212046FEF7CEF90220FEF711FA20468D
:1038500001222121FEF7C6F920469A224121FEF7D6
:10386000C1F9204601224A21FEF7BCF92046012277
:103870004B21FEF7B7F9204600224B21FEF7B2F9A3
:10388000204601225621FEF7ADF92046012258219B
:10389000FEF7A8F9204601224021FEF7A3F92046B1
:1038A000FF220B21FEF79EF9BDE870400220FEF7D3
:1038B000DFB90000054BD3F8882042F47002C3F84A
:1038C00088204FF000629A60704700BF00ED00E072
:1038D00008B50B4B1A6842F400721A601A6842F479
:1038E00080621A601A6842F480721A60032000F045
:1038F0002FF80020FEF71CFDFEF742FA002008BD5D
:10390000003C0240034A044B11681B780B441360CF
:10391000704700BFFC1B00207C000020014B186892
:10392000704700BFFC1B002038B50446FFF7F6FFC8
:10393000631C1CBF054B1B78054618BFE418FFF736
:10394000EDFF431BA342FAD338BD00BF7C0000202B
:103950000749CA6822F4E0620302120403F4E06338
:10396000120C134343F0BF6343F40033CB60704742
:1039700000ED00E0164B30B5DC68C4F30224C4F15E
:103980000703251D042B28BF0423062D4FF0FF3508
:103990008CBF033C002405FA03F321EA0303A5408E
:1039A00022EA0502A340002843EA0203ACBF00F16B
:1039B0006040084A4FEA0313B8BF00F00F00DBB2C3
:1039C000AABF00F56140135480F8003330BD00BF3A
:1039D00000ED00E014ED00E0002807DB044A410997
:1039E000012300F01F00834042F82130704700BFE0
:1039F00000E100E010B5044650B1437903F0FF0246
:103A000013B90271FEF7DCF901236371002010BDC8
:103A10000120FCE7036810B5084C0246D9B2103902
:103A20001820B1FBF0F0205CD06523F47F7020F00B
:103A300003005F2988BF0430906510BDF467020859
:103A400070B50446FFF76AFF0546002C60D00223DC
:103A500084F835302268002384F83430136823F06A
:103A60000103136022681368D8072ED41368324804
:103A7000A1691840D4E901352B43E5682B4325693A
:103A80002B4365692B43E5690B432B43256A2B4385
:103A90000343606A042802BFD4E90B5635432B4325
:103AA00013605369042823F0070343EA000335D168
:103AB000A06AE56A03438DB391B9012820D030F0A4
:103AC00002012BD1E90129D51DE0FFF727FF401B9B
:103AD0000528C7D920230320636584F8350070BD0D
:103AE000B1F5005F16D1032818D801A151F820F0D4
:103AF000073B0008C53A0008073B0008013B0008E7
:103B0000B5F1C07F0AD140236365012384F83530C5
:103B10000120E4E70228F6D90328D3D053612046D8
:103B2000FFF778FFE26D3F2393408360002001237D
:103B3000606584F83530D2E73F8010F070B50446F8
:103B4000866DFFF7EBFE94F83530022B054606D064
:103B5000802363650120002384F8343070BD23681E
:103B60001A6822F016021A605A6922F080025A611D
:103B7000226C0AB9A26C1AB11A6822F008021A6003
:103B80001A6822F001021A602368186810F0010018
:103B900007D1E26D3F239340B360012384F83530B1
:103BA000D9E7FFF7BBFE401B0528EDD920230320F2
:103BB000636584F83500CEE790F83530022B03D0EA
:103BC00080234365012070470268052380F8353063
:103BD000136823F00103136000207047F7B500233A
:103BE00001935C4B856D1F68C36D2E6808229A4057
:103BF000324204460CD001680868400708D50868BE
:103C000020F004000860AA60626D42F00102626563
:103C100001229A40324208D021684969090641BF11
:103C2000AA60626D42F00202626504229A4032424A
:103C300008D021680968880741BFAA60626D42F018
:103C40000402626510229A40324210D0236819683B
:103C500009070CD5AA601A68500337D51B681903E9
:103C600001D4236C00E0A36C0BB120469847E16DB2
:103C700020228A4032423AD023681868C60636D5D8
:103C8000AA6094F83520052A1A6827D122F0160276
:103C90001A605A6922F080025A61226C0AB9A26C39
:103CA0001AB11A6822F008021A603F238B40AB60F9
:103CB000012384F83530002384F83430236D002B41
:103CC00045D0204603B0BDE8F04018471A68D20539
:103CD0005EBF1A6822F008021A60C2E7500327D5B7
:103CE0001B68190331D4636C0BB120469847636D90
:103CF0006BB3636DDA0719D522684FF41653B7FB1F
:103D0000F3F7052384F83530136823F001031360BB
:103D1000019B0133BB42019302D81368DB07F7D440
:103D2000012384F83530002384F83430E36CC6E78F
:103D30001A6812F4807208D1196821F01001196014
:103D4000012384F8353084F83420E36BCCE703B0EA
:103D5000F0BD00BF7800002010B5044620B390F8F5
:103D6000393003F0FF021BB980F83820FEF740F825
:103D7000022384F83930236861681A6822F44032DB
:103D80000A431A605A6BA16822F007020A435A6379
:103D90001A6CE1686FF30D020A431A6400200123D4
:103DA000E06384F8393010BD0120FCE770477047AC
:103DB000036870B55E681D68F207044614D5E9050E
:103DC00012D51A6822F480721A60C26B42F00102A6
:103DD000C26301229A60042380F83930002380F8FE
:103DE0003830436903B19847B20616D5AB0414D5F1
:103DF00023681A6822F400521A6020229A60E36B4A
:103E000043F00203E363042384F83930002384F889
:103E1000383063690BB120469847300716D529051D
:103E200014D523681A6822F400621A6008229A6086
:103E3000E36B43F00403E363042384F83930002385
:103E400084F8383063690BB12046984772070BD568
:103E50006B0509D523681A6822F480621A6004226F
:103E60009A602046FFF7A2FFB00714D5A90512D526
:103E700023681A6822F400721A6002229A60E36BC7
:103E8000E363012384F83930002384F83830236950
:103E90000BB120469847F20613D5EB0411D52368E1
:103EA0001A6822F480521A6010229A60E36BE3636E
:103EB000012384F83930002384F838302046FFF796
:103EC00076FF70BDF0B590F83820012A03464FF018
:103ED00002002BD0012283F8382083F8390003EB4D
:103EE0000112D2E90740556A174E44EA0040093CE6
:103EF000012C9CBF05F07F4210434FEA01171A685E
:103F000088BF40EA056091B9516A3140014351626E
:103F1000012C9969916103D8596A21F07F4191621E
:103F20000122002083F8392083F83800F0BDD169E0
:103F300031400143D161D919012C896911619CBFBC
:103F400025F07F451562EBE7F0FFFC002DE9F74F08
:103F5000DFF8BC916C4A00230D6801249C4004EA00
:103F60000506AC4340F0B7804D68032705F0030415
:103F70004FEA430807FA08FC671E012F6FEA0C0C92
:103F800034D8876807EA0C0ECF6807FA08F747EAC3
:103F90000E078760476827EA060EC5F300179F40A3
:103FA00047EA0E074760C76807EA0C0E8F6807FAF2
:103FB00008F747EA0E07022CC76019D14FEAD30A67
:103FC00000EB8A0A03F0070BDAF820704FEA8B0B3C
:103FD0004FF00F0E0EFA0BFE27EA0E0E0F6907FACE
:103FE0000BF747EA0E07CAF8207001E0032CDAD17C
:103FF000076804FA08F407EA0C073C4315F4403F4D
:10400000046068D000240194D9F8444044F480440A
:10401000C9F84440D9F8444023F0030707F180472A
:1040200004F4804407F59C37019403F0030C019CD1
:10403000D7F808E04FEA8C0C0F2404FA0CF42EEAAF
:10404000040E324CA0424DD004F58064A0424BD007
:1040500004F58064A04249D004F58064A04247D0B2
:1040600004F58064A04245D004F58064A04243D0AA
:1040700004F58064A04241D004F58064A0423FD0A2
:1040800004F58064A0423DD004F58064A04214BFD2
:104090000A24092404FA0CF444EA0E04BC6094686F
:1040A000F74315F4801F0CBF3C4034439460D46840
:1040B00015F4001F0CBF3C403443D460546815F421
:1040C000003F0CBF3C40344354601468ED0354BFC0
:1040D0003C40344314600133102B7FF43DAF03B0F8
:1040E000BDE8F08F0024D5E70124D3E70224D1E70F
:1040F0000324CFE70424CDE70524CBE70624C9E752
:104100000724C7E70824C5E7003C0140000002403F
:104110000038024000690840003818BF012070478D
:104120000AB1816170470904FBE7436901EA0302B0
:1041300021EA030141EA02418161704701684B694C
:1041400013F480634FF0000210D06FF480634B6172
:104150002023026380F83D3080F83E20036C80F815
:104160003C2043F004030364012070471846704765
:104170002DE9F84606460F4691461D464FEA114A7C
:104180003368BAF1010F39D15C6927EA0404A4B29B
:10419000B4FA84F46409A14501D0002024E06A1C2B
:1041A000EFD0FFF7BBFB089BC01AA84201D8002D37
:1041B000E6D1BAF1010F336818D15B6927EA03032E
:1041C0009BB2B3FA83F35B099945D9D1002320222E
:1041D000336386F83D2086F83E30326C86F83C30FA
:1041E00042F0200232640120BDE8F8869B69DB437F
:1041F000C3F3400383F00103DBB2E5E79C69E443CA
:10420000C4F3400484F00104E4B2C4E72DE9F041B2
:1042100004460F46164698462568686927EA000056
:1042200080B2C0B16B695A0517D52B6843F400738F
:104230002B606FF480636B6120220023236384F87A
:104240003D2084F83E30236C43F0040323640023B4
:1042500084F83C300120BDE8F081731CDDD0FFF70D
:104260005DFBA0EB0800B04201D8002ED4D123683A
:104270005A6927EA020292B2002ACDD000232022F6
:10428000236384F83D2084F83E30236C1343DDE73C
:1042900070B504460D46164623685B691B0601D5BA
:1042A00000201EE02046FFF749FFC8B96A1CF3D082
:1042B000FFF734FB801BA84201D8002DECD1236806
:1042C0005B6913F08003E7D12022236384F83D204B
:1042D00084F83E30226C84F83C3042F020022264A4
:1042E000012070BD2DE9F0431546026885B0DDE977
:1042F0000C789946136843F4807313600E463B466E
:10430000CDF8008000224FF001110446FFF730FF86
:10431000236838B11B68DB0502D54FF400732364B2
:10432000032620E006F0FE061E611A4943463A467F
:104330002046FFF76BFFA8B9236803905A690392E0
:104340009B690393424639462046039BFFF7A0FF33
:10435000064660B1236C042B01BF2268136843F446
:10436000007313600126304605B0BDE8F083B9F153
:10437000010F236802D1EDB21D61F4E72A0A1A6128
:10438000394642462046FFF783FF0028E2D12368E2
:10439000F1E700BF020001002DE9FF479A460368DC
:1043A00015461A6842F480621A601A68DDE90C78D2
:1043B00042F480721A600E463B46CDF8008000221F
:1043C0004FF001110446FFF7D3FE236838B11B6894
:1043D000DB0544BF4FF400732364032021E05FFA40
:1043E00086F906F0FE061E612A4943463A462046F3
:1043F000FFF70CFFA0B9236803905A6903929B69E9
:104400000393424639462046039BFFF741FF58B1CC
:10441000236C042B01BF2268136843F400731360FC
:10442000012004B0BDE8F087BAF1010F23681AD16A
:10443000EDB242461D6139462046FFF729FF02468C
:104440000028E5D121680B6843F480730B60204697
:10445000CDF800803B464FF00111FFF789FE22683E
:1044600060B11368B4E72A0A1A6139464246204609
:10447000FFF70EFF0028CBD12368D9E749F00103ED
:1044800004491361204643463A4604B0BDE8F0476C
:10449000FFF7BCBE0200010070B504460D4616468B
:1044A00023685B695B0701D500201EE02046FFF70B
:1044B00045FEC8B96A1CF3D0FFF730FA801BA8424A
:1044C00001D8002DECD123685B6913F00403E7D118
:1044D0002022236384F83D2084F83E30226C84F847
:1044E0003C3042F020022264012070BD70B50446C9
:1044F0000D46164621684B6913F0400301D0002099
:1045000011E04A69D2060FD56FF010024A612022ED
:10451000236384F83D2084F83E30236C2364002319
:1045200084F83C30012070BDFFF7F8F9801BA842E9
:1045300001D8002DDED123685B6913F04003D9D187
:104540002022236384F83D2084F83E30236C1343FB
:10455000E4E7000070B5044608B9012070BD90F88A
:104560003D3003F0FF021BB980F83C20FDF760FCF2
:10457000242384F83D3023681A6822F001021A606F
:104580001A6842F400421A601A6822F400421A6063
:1045900000F088FE3F4B65689D4294BF3E4B3F4B09
:1045A00098428CBF00230123002BD6D12268394EBC
:1045B00051683B4BB0FBF3F321F03F011943B54287
:1045C000516088BF4FF49676116A88BF734321F01B
:1045D0003F0184BF4FF47A76B3FBF6F301330B430C
:1045E0001362D169431E2B4821F44F41854221F0CB
:1045F000FF0132D86D0040F6FC70B3FBF5F30133D8
:10460000034242D0C3F30B031943D161D4E907300D
:104610001168034321F0C0010B4313609168D4E992
:10462000030321F40341034321F0FF010B43936093
:10463000D4E90530D168034321F0FF010B43D36077
:10464000136843F00103136000202023206484F8E2
:104650003D30206384F83E0080E7A06850B905EB48
:104660004505B3FBF5F30133C3F30B037BB143F40F
:104670000043C9E719206843B3FBF0F30133C3F3E8
:104680000B0323B143F44043BEE70423BCE70123FB
:10469000BAE700BFA08601007F841E00FF083D002E
:1046A00040420F002DE9F743044699460C9E0F4601
:1046B0009046FFF733F994F83D30202B054603D0A0
:1046C000022003B0BDE8F08300903C491923012289
:1046D0002046FFF74DFD0028F2D194F83C30012B25
:1046E000EED02068012384F83C300368D9075EBF10
:1046F000036843F001030360036823F4006303606D
:10470000212384F83D30402384F83E300023236485
:104710000A9B6362BDF82C306385638D2385284B2B
:10472000E3624246CDE900654B4639462046FFF735
:10473000D9FD00282AD00120C3E7FFF7A9FD40B129
:10474000236C042B01BF2268136843F400731360C9
:10475000F1E7636A27681A4612F8011B3961626241
:10476000628D218D013A92B262857A69481E80B2CB
:10477000520720850AD548B15A783A6102336362FC
:10478000638D013B02399BB221856385238D2A46C7
:1047900031462046002BD0D1FFF77EFE0028CFD136
:1047A0002268136843F400731360202384F83D30BB
:1047B00084F83C0084F83E0083E700BF020010004C
:1047C0000000FFFF2DE9F043044687B09946109F93
:1047D0000D469046FFF7A2F894F83D30202B064690
:1047E00004D00225284607B0BDE8F083009079493F
:1047F000192301222046FFF7BBFC0028F1D194F8D1
:104800003C30012BEDD02068012384F83C30036854
:10481000DB075EBF036843F001030360036823F412
:1048200000630360222384F83D30402384F83E3047
:10483000002323640E9B6362BDF83C306385638D67
:104840002385654BE3622946CDE900764B46424617
:104850002046FFF7A1FD054608B10125C2E7228DDC
:104860002368A2B902905A6902929A690292029A46
:104870001A6842F400721A60238D002B2CD120227A
:1048800084F83D2084F83C3084F83E30AAE7012AC1
:104890000AD11A6822F480621A6003905A6903925E
:1048A0009A690392039AE3E7022A0ED11A6822F466
:1048B00080621A601A6842F400621A6004905A69B1
:1048C00004929B690493049BD6E705905A6905926C
:1048D0009B690593059BCFE7032B56D8012B15D178
:1048E000324639462046FFF701FE0028B5D123683D
:1048F0001A69636A1A70636A01336362238D013B2C
:104900002385638D013B9BB26385B5E7022B334959
:1049100000963B464FF00002204619D1FFF728FCD5
:1049200000289AD123681A6842F400721A601A6942
:10493000636A1A70626A531C6362238D013B23858C
:10494000638D013B9BB2638523681B695370D2E77B
:10495000FFF70EFC024600287FF47FAF236819683A
:1049600021F4806119601969636A1970636A1B49CF
:1049700001336362238D013B2385638D013B9BB231
:104980006385204600963B46C8E7324639462046B6
:10499000FFF7ACFD00287FF460AF23681A69636AF3
:1049A0001A70628D616A013A92B24B1C628522686C
:1049B0006362238D5069013B9BB2400723857FF5DD
:1049C0005BAF032B02BF136823F48063136013698A
:1049D0004B7090E7020010000000FFFF0400010090
:1049E00010B590F83D30202BDCB216D1242380F88E
:1049F0003D3003681A6822F001021A605A6A22F0F8
:104A000010025A625A6A114359621A6842F001024E
:104A10001A6080F83D40002010BD0220FCE730B550
:104A200090F83D30202BDCB216D10268242380F8A8
:104A30003D30136823F001031360556A4FF6F0739D
:104A40002B400B439BB25362136843F00103136086
:104A500080F83D40002030BD0220FCE70068D20114
:104A600084328318F0B5C7685D684C680E6805F439
:104A700070455D60C56806F1010CC5F30B45C7F3D1
:104A80000B472744654445EA07455D60C768CD6824
:104A9000C7F30A072F449D6805F470459D60D0F860
:104AA0000CC08D68CCF30A0C0135654445EA074516
:104AB0009D601D69D1F810C08F6925F007051D6143
:104AC000C3F810C091F8305045EA076591F831708D
:104AD00045EA072591F8327045EA07459D615D6911
:104AE00025F0FF055D614D695D61DD6925F4E065D7
:104AF00025F00705DD61D1E907573D43DD61BCF1D4
:104B0000070F4D6A9D629CBF0D4D15F80C70DD6A54
:104B100005F0E025DD6288BF01278D6AC96AA41B04
:104B20007C437D43033444EA0544DC621C6B6FF331
:104B30000A041C631963835843F001038350F0BDDA
:104B4000FC67020838B5044600284ED090F8A13022
:104B500003F0FF021BB980F8A020FDF7C5F902237E
:104B600084F8A13023689A6922F070429A61D4E9EE
:104B700001200243E06899690243206902430A4325
:104B80009A61D4E9051242EA01429A60D4E9071217
:104B900042EA0142DA60D4E9091242EA01421A61AA
:104BA000D4E90B1242EA01425A61DA6A94F83500FC
:104BB00094F8361002F07F42DA62DD6A94F834200D
:104BC0002A4342EA002242EA0142DA625A6B42F088
:104BD00006025A639A6942F001029A610020012399
:104BE000C4F8A40084F8A13038BD0120FCE7704768
:104BF0007047036870B59E6B5D6B7207044614D5F1
:104C0000690712D55A6B22F004025A630422DA6350
:104C1000D0F8A43043F00103C0F8A430002380F89A
:104C2000A12080F8A030FFF7E2FFB20716D5AB074E
:104C300014D523685A6B22F002025A630222DA6307
:104C4000D4F8A4301343C4F8A430042384F8A1306A
:104C5000002384F8A0302046FFF7C9FFF00710D5E5
:104C6000E9070ED523685A6B22F001025A6301222C
:104C7000DA63002384F8A12084F8A0302046FCF7F2
:104C80008FFC320711D52B070FD523685A6B22F002
:104C900008025A630822DA63012384F8A130002352
:104CA00084F8A0302046FFF7A3FF70BD2DE9F04146
:104CB00090F8A030012B06460F4694464FF00200B4
:104CC0001FD04FF0010886F8A08086F8A100342498
:104CD0000D4604FB02640FCD38340FC40FCD0FC452
:104CE0000FCD0FC42B682360304662463946FFF76C
:104CF000B5FE33680020C3F8248086F8A18086F8CA
:104D0000A000BDE8F081000090F8A020012A034631
:104D10004FF0020012D01A6883F8A100506B20F007
:104D20000100506306480164516B41F00101516379
:104D30000020012283F8A12083F8A000704700BF63
:104D40000068014037B500230193184B184D1A6CC9
:104D500042F080521A641B6C03F080530193019B54
:104D6000144B01221A64FEF7D9FD04466B68DA037E
:104D70000BD5104B0E4D01225A64FEF7CFFD0446B1
:104D80006B689B030AD5002006E0FEF7C7FD001BF9
:104D9000B0F57A7FEAD9032003B030BDFEF7BEFD3F
:104DA000001BB0F57A7FEBD9F5E700BF0038024071
:104DB0000070004000000E422DE9F341044640B36C
:104DC0000368DE0710D423689D075BD423681907A6
:104DD00000F19D8023685A0700F1BD80A369002B74
:104DE00040F0248100202CE08D4B9A6802F00C02E8
:104DF000042A07D09A6802F00C02082A0BD15B68DB
:104E0000590208D5864B1B689A03DCD56368002BD2
:104E1000D9D1012015E06368814DB3F5803F13D1EE
:104E20002B6843F480332B60FEF778FD7C4E0546FB
:104E300033689B03C7D4FEF771FD401B6428F7D984
:104E4000032002B0BDE8F081B3F5A02F04D12B6898
:104E500043F480232B60E3E72A6822F480322A603F
:104E60002A6822F480222A60002BDDD1FEF756FD4D
:104E700006462B689F03A6D5FEF750FD801B6428CD
:104E8000F7D9DDE7664B9A6812F00C0F07D09A68E5
:104E900002F00C02082A11D15B685D020ED4604A50
:104EA0001368990702D5E368012BB2D11368216911
:104EB00023F0F80343EAC103136087E7E268594B24
:104EC000B2B101221A60FEF729FD554D06462B6846
:104ED0009B0707D52B68226923F0F80343EAC20336
:104EE0002B6073E7FEF71AFD801B0228EFD9A7E7B6
:104EF0001A60FEF713FD4A4E054633689F077FF59B
:104F000065AFFEF70BFD401B0228F6D998E76269F2
:104F1000444B82B10122C3F8802EFEF7FFFC404EC5
:104F20000546736F9B073FF555AFFEF7F7FC401B37
:104F30000228F6D984E7C3F8802EFEF7EFFC384E3E
:104F40000546736F9F077FF545AFFEF7E7FC401BF3
:104F50000228F6D974E7324B1A6C12F0805228D12D
:104F600001921A6C42F080521A641B6C03F0805359
:104F70000193019B01272C4D2B68D8051BD5A368F5
:104F8000274D012B27D12B6F43F001032B67FEF731
:104F9000C5FC234E054641F28838336F9A0739D550
:104FA000002F3FF41BAF1E4A136C23F08053136491
:104FB00014E70027DFE72B6843F480732B60FEF7CC
:104FC000ADFC06462B68D905D9D4FEF7A7FC801B9B
:104FD0000228F7D934E7052B04D12B6F43F00403E3
:104FE0002B67D0E72A6F22F001022A672A6F22F08E
:104FF00004022A67002BCAD1FEF790FC41F28838E0
:1050000006462B6F9B07CBD5FEF788FC801B4045DF
:10501000F7D915E7FEF782FC401B4045BDD90FE7E5
:10502000003802400000474200700040374DAA6837
:1050300002F00C02082A3ED0022B354B4FF0000242
:105040001A662BD1FEF76AFC06462B6899011FD41D
:10505000D4E907321343626A43EA8213E26A43EAFD
:105060000263A26A5208013A43EA02436B60284B8A
:10507000264D01221A66FEF751FC04462B689A0160
:105080003FF5B0AEFEF74AFC001B0228F6D9D7E682
:10509000FEF744FC801B0228D7D9D1E6FEF73EFC80
:1050A00004462B689B017FF59DAEFEF737FC001B85
:1050B0000228F6D9C4E6012B3FF4ABAE6B68E26977
:1050C00003F4800191427FF4A4AE216A03F03F0211
:1050D0008A427FF49EAE616A47F6C0721A40B2EB14
:1050E000811F7FF496AEA26A520803F44031013A60
:1050F000B1EB024F7FF48DAEE26A03F07063B3EB65
:10510000026F14BF012000209BE600BF0038024060
:1051100000004742134908B58B6803F00C03042BC9
:105120001CD0082B1CD14A684B68496813F48003D3
:1051300014BF0D480D48C1F3881118BF002302F0B9
:105140003F02A1FB0001FBF7A3F8064B5B68C3F32A
:10515000014301335B00B0FBF3F008BD0248FCE7FC
:105160000248FAE70038024000127A000024F400F6
:105170002DE9F0410D46044610B90120BDE8F0814B
:10518000434B1A6802F00F028A4228D321688F0726
:105190002DD4C80740D43E4B1A6802F00F02AA4231
:1051A00065D8226851076BD4130707D5394A21699E
:1051B000936823F4604343EAC1039360FFF7AAFFB7
:1051C000344B354A9B68C3F30313D35CD840334B4D
:1051D0001860334B1868FDF7ABF80020CEE7CAB271
:1051E0001A701B6803F00F038B42C6D1CEE7294B20
:1051F00011F0040F1EBF9A6842F4E0529A600E0745
:1052000042BF9A6842F460429A609A68A06822F0AD
:10521000F00202439A60BCE762681E4B012A1CD16F
:105220001B6813F4003FA8D01A4EB36823F00303A1
:105230001343B360FEF772FB41F288380746B36848
:10524000626803F00C03B3EB820FA4D0FEF766FB99
:10525000C01B4045F3D9032090E7911E01291B682C
:1052600002D813F0007FDEE713F0020FDBE7EAB2AB
:105270001A701B6803F00F03AB427FF47EAF90E718
:105280000449E0688B6823F4E05303438B608BE7A9
:10529000003C024000380240E46702087800002029
:1052A00080000020044B054A9B68C3F38223D35C33
:1052B000034A1068D840704700380240DC67020893
:1052C00078000020044B054A9B68C3F34233D35C4B
:1052D000034A1068D840704700380240DC67020873
:1052E000780000200F2303600B4B9A6802F0030242
:1052F00042609A6802F0F00282609A6802F4E0521A
:10530000C2609B68DB0803F4E0530361034B1B6836
:1053100003F00F030B60704700380240003C02406E
:10532000036813F0430FF7B5044640F08780236805
:1053300013F00C0F45D08C4B8C4D00221A67FEF7F2
:10534000EDFA06462B68990000F1CA8021684A07E9
:1053500015D5D4E90403D5F888201B0602F0E042F5
:1053600043EA80131343C5F88830D5F88C30226A9D
:1053700023F4F853013A43EA0223C5F88C300B07B3
:1053800014D57A4AA369D2F8881020691B0701F066
:10539000706143EA80130B43C2F88830D2F88C3036
:1053A000616A23F440330B43C2F88C306E4B6F4E6E
:1053B00001221A67FEF7B2FA054633689F0040F1F2
:1053C00096802368980633D500230193674B684D78
:1053D0001A6C42F080521A641B6C03F080530193E4
:1053E000019B2B6843F480732B60FEF797FA064607
:1053F0002B68D80540F182805C4D2B6F13F440730D
:1054000040F08380A36A03F44072B2F5407F574AAC
:1054100040F09F80916823F0704021F4F81120F44F
:10542000407001439160116FC3F30B030B4313678B
:105430002368DB0600F1918000204FE04A4B4B4E81
:1054400000229A66FEF76AFA054633681F013FD4C8
:105450002168C80741BFD4E901231B0743EA82132F
:10546000C6F884308A0715D5404AE368D2F884002C
:1054700065681B0600F0E04043EA85130343C2F869
:105480008430D2F88C00E36920F01F00013B034315
:10549000C2F88C304B060AD5E36862681B0643EA03
:1054A0008213A26843EA0273304AC2F884302E4B5A
:1054B0002E4E01229A66FEF731FA054633681F0127
:1054C0003FF535AFFEF72AFA401B0228F6D904E073
:1054D000FEF724FA401B0228B7D9032003B0F0BD21
:1054E000FEF71CFA801B02287FF62CAFF5E7FEF7CB
:1054F00015FA401B02287FF660AFEEE7FEF70EFAC2
:10550000801B02287FF674AFE7E7A26A02F44072BC
:1055100093423FF477AF2B6F134A0121C2F8401E2C
:1055200023F440730021C2F8401E2B672B6FD9076C
:105530007FF568AFFEF7F2F941F2883706462B6F28
:105540009A073FF55FAFFEF7E9F9801BB842F6D93D
:10555000C3E7916821F4F81164E7064B94F82C2016
:10556000C3F8E02168E700BF00004742003802406E
:10557000007000400010474238B50D460446C8B1DF
:1055800090F82C3003F0FF021BB980F82D20FCF7B7
:1055900063FE022384F82C30211D206801F05AF9A3
:1055A00062682068294601F08BF9012384F82C30C9
:1055B000002038BD0120FCE770B590F82C30022B9C
:1055C00005460E46D8B212D000F0FB04012C0FD1D4
:1055D000022385F82C30286801F0A8F93368022BE3
:1055E00006BF052385F82C3085F82C40002070BDBF
:1055F0000120FCE738B590F82C30022B0446D8B2D5
:105600000DD094F82C30012BDDB209D10223206893
:1056100084F82C3001F0AEF984F82C50002038BD0D
:105620000120FCE72DE9F3471F46894690460446D2
:10563000FEF774F90A9D3D442D1AFEF76FF9264BCB
:105640001E68C6F3CB366E43824601962268936885
:1056500039EA03030CBF01230023434501D1002095
:105660002EE07B1CF3D0FEF759F9A0EB0A00A8420C
:1056700029D323685A6822F0E0025A606268B2F5C2
:10568000827F0AD1A268B2F5004F02D0B2F5806FD6
:1056900003D11A6822F040021A60A26AB2F5005FD4
:1056A00007D11A6822F400521A601A6842F40052B4
:1056B0001A60012384F85130002384F8503003200D
:1056C00002B0BDE8F087019B1BB1019B013B019338
:1056D000BCE71D46BAE700BF78000020F0B585B0F2
:1056E0000B4600920E461746022101220446FFF7A0
:1056F00099FF054628B1636D43F0200363650325D8
:1057000015E0124B1868124BB0FBF3F04FF47A73AC
:10571000584363680390B3F5827F0BD100973346FB
:105720002A4680212046FFF77DFF0028E3D1284646
:1057300005B0F0BD039B002BF9D0039B013B039305
:1057400023689B681B06F5D4F1E700BF78000020B2
:1057500000366E0137B50B464168B1F5827F0446CD
:1057600008D0009201210022FFF75CFFD0B9002091
:1057700003B030BD8168B1F5004F02D0B1F5806F44
:1057800007D125682868B1F5806F20F040002860B7
:1057900004D00092802100222046E5E700920121FA
:1057A0000022F9E7636D43F0200363650320DFE720
:1057B00010B50446002855D0436A002B4ED14268EC
:1057C000B2F5827F00D0C3610023A36294F8513008
:1057D00003F0FF0223B984F850202046FCF760FC58
:1057E0002168A068A269022384F851300B6823F075
:1057F00040030B60636800F4044003F482730343C6
:10580000E06800F400600343206900F002000343F5
:10581000606900F00100034302F400700343E06993
:1058200000F038000343206A00F080000343A06AC0
:1058300000F4005003430B60636A120C03F0100382
:1058400002F004021A434A60CB6923F40063CB617F
:1058500000200123606584F8513010BD0023C0E9A9
:105860000433B1E70120F8E72DE9F74304461F466A
:105870000D469046FEF752F894F85130012B8146C0
:10588000D8B240F09F80002D74D0B8F1000F71D0D5
:1058900094F85030012B00F09580032384F85130A8
:1058A00000236365C4E91033A4F83680A363A3879B
:1058B000E387A368266884F85000B3F5004F25639A
:1058C000A4F8348007D1336823F040033360336891
:1058D00043F4804333603368E2685B065EBF33683D
:1058E00043F040033360B2F5006F636845D113B1F4
:1058F000B8F1010F07D135F8023BF3602563E38E61
:10590000013B9BB2E386E38E9BB2D3B94A4639464C
:105910002046FFF7E3FE002851D1A36833B9019375
:105920002368DA6801929B680193019B012384F844
:105930005130606D0023C01A84F8503018BF012028
:1059400018E022689368980705D5236B33F8021B8B
:10595000D1602363D3E7FDF7E1FFA0EB0900B84274
:10596000D1D3791CCFD0012384F85130002384F89F
:105970005030032003B0BDE8F08313B1B8F1010F3C
:1059800008D12B783373236B01332363E38E013B00
:105990009BB2E386E38E9BB2002BB7D023689A6854
:1059A000920703D5226B12781A73ECE7FDF7B6FF66
:1059B000A0EB0900B842EDD37B1CEBD0D3E720234A
:1059C0006365AAE70220D5E72DE9F74304460D46B3
:1059D00091461E46DDF82880FDF7A0FF94F851306F
:1059E0006268012B0746D9B20AD0B2F5827F40F037
:1059F000E580A368002B40F0E180042940F0DE80C0
:105A0000002D4BD0B9F1000F48D0002E46D094F8AD
:105A10005030012B00F0D280012384F8503094F8EC
:105A20005130C4F83890042B1CBF052384F8513042
:105A300000236365C4E910332368E687E6861968A6
:105A4000A687490658BF1968256358BF41F0400131
:105A5000A68658BF1960E168B1F5006F55D10AB14B
:105A6000012E07D135F8022BDA60E38E2563013B66
:105A70009BB2E3860125E38E9BB28BB9E38F9BB289
:105A800073B93A4641462046FFF728FE002800F049
:105A9000818020236365002384F85030012031E0A9
:105AA00021688B689A070DD5E38E9BB253B145B13F
:105AB000236B33F8022BCA602363E38E013B9BB256
:105AC000E38600258A6812F001020CD0E38F9BB2B6
:105AD0004BB1A36BC96823F8021BA363E38F013B9F
