:020000040800F2
:1000000000000320BD0500089D2400089F2400086F
:10001000A1240008A3240008A52400080000000073
:1000200000000000000000000000000091710008C6
:10003000A72400080000000021720008C96A000817
:100040000D0600080D0600080D0600080D06000844
:100050000D0600080D0600080D0600080D06000834
:100060000D0600080D0600080D0600080D06000824
:100070000D0600080D0600080D0600080D06000814
:10008000A92400080D0600080D0600080D0600084A
:100090000D0600080D0600080D0600080D060008F4
:1000A000B52400080D0600080D0600080D0600081E
:1000B000392500080D0600080D0600080D06000889
:1000C0000D0600080D0600080D0600080D060008C4
:1000D0000D0600080D060008452500080D0600085D
:1000E0000D0600080D0600080D0600080D060008A4
:1000F0000D0600080D0600080D0600080D06000894
:100100000D0600080D0600080D0600080D06000883
:100110000D0600080D060008512500080D06000810
:100120000D0600080D0600080D0600080D06000863
:100130000D0600080D0600080D0600080D06000853
:100140000D0600080D0600080D0600080D06000843
:100150000D0600080D0600080D0600080D06000833
:100160000D0600080D0600080D0600080D06000823
:100170000D0600080D0600080D060008000000002E
:100180000D0600080D0600080D0600080D06000803
:100190000D0600080D0600080D0600080D060008F3
:0C01A0005D2500080D0600086925000818
:1001B00010B5054C237833B9044B13B10448AFF3A1
:1001C00000800123237010BD800300200000000088
:1001D000D457020808B5034B1BB103490348AFF3DA
:1001E000008008BD0000000084030020D4570208EE
:1001F00001F0FF01102A2BDB10F0070F08D010F8D8
:10020000013B013A8B422DD010F0070F42B3F6D1DB
:10021000F0B441EA012141EA014122F007047FF0F4
:1002200000070023F0E80256083C85EA010586EA4B
:10023000010685FA47F5A3FA87F586FA47F6A5FA87
:1002400087F68EB9EED1F0BC01F0FF0102F0070293
:1002500032B110F8013B013A83EA010313B1F8D13E
:100260000020704701387047002D06BF354603381F
:10027000073815F0010F07D1013015F4807F02BF58
:10028000013015F4C03F0130F0BC0138704700BFA9
:1002900053B94AB9002908BF00281CBF4FF0FF31ED
:1002A0004FF0FF3000F088B9ADF1080C6DE904CED5
:1002B00000F006F8DDF804E0DDE9022304B0704741
:1002C0002DE9F047089D0F4604468C46002B48D187
:1002D0008A42164661D9B2FA82F34BB1C3F12002C9
:1002E00001FA03FC20FA02F29E4042EA0C0C9C4008
:1002F0004FEA164EB7B2BCFBFEF1220C0EFB11CC3E
:1003000042EA0C4201FB07F0904209D9B21801F110
:10031000FF3C80F0EE80904240F2EB8002393244A4
:10032000121AA4B2B2FBFEF00EFB102244EA024401
:1003300000FB07F7A74209D9341900F1FF3280F01A
:10034000DA80A74240F2D7803444023840EA0140C4
:10035000E41B00211DB1DC400023C5E90043BDE8DA
:10036000F0878B4206D90DB1C5E90001002108468E
:10037000BDE8F087B3FA83F1002948D1BB4202D32C
:10038000824200F20781841A67EB0302012094463F
:10039000002DE4D0C5E9004CE1E7002A00F092808E
:1003A000B2FA82F3002B40F0A8808A1A4FEA164E68
:1003B0001FFA86FC0121200CB2FBFEF70EFB172270
:1003C00040EA02420CFB07F0904207D9B21807F14D
:1003D000FF3802D2904200F2E2804746121AA4B2DD
:1003E000B2FBFEF00EFB102244EA02440CFB00FCC0
:1003F000A44507D9341900F1FF3202D2A44500F216
:10040000CB801046A4EB0C0440EA0740A2E7C1F100
:1004100020068B4022FA06FC4CEA030C07FA01F492
:1004200020FA06F3F7404FEA1C49234300FA01F88B
:100430001FFA8CFEB7FBF9F01C0C09FB107744EA9D
:10044000074400FB0EF7A74202FA01F20AD91CEB9F
:10045000040400F1FF3A80F09B80A74240F29880AC
:1004600002386444E41B9FB2B4FBF9F309FB134464
:1004700047EA044403FB0EFEA64509D91CEB04041D
:1004800003F1FF3780F08280A6457FD9023B6444A8
:1004900043EA0040A4EB0E04A0FB02E7BC42734613
:1004A000B94663D360D05DB1B8EB030264EB0904D5
:1004B00004FA06F622FA01F31E43CC40C5E90064B3
:1004C00000214CE76208480842EAC1710B0C43EA7C
:1004D00000438AB242EA0342B3FBF6F1E407B446B2
:1004E0003746B6461F23B0FBF6F0D21B41EA004167
:1004F00061E7614614E7104628E7C3F1200120FABE
:1005000001F29E4027FA01F19F403A434FEA164E0E
:100510001FFA86FCB1FBFEF70EFB1710110C41EA27
:10052000004107FB0CF8884504FA03F43AD9711826
:1005300007F1FF3001D288451FD8A1EB0801B1FBBC
:10054000FEF808FB0CF70EFB181192B242EA0142CA
:10055000BA422FD2B21808F1FF31C6D2BA42C4D281
:10056000A8F102013244C0E7F0459CD2BEEB020381
:1005700067EB0C070138B94695E7A6EB080841443C
:10058000B81EB1FBFEF808FB0CF7DCE73B467FE743
:10059000504667E70846FBE63444023832E7023F3C
:1005A00032441BE7A1EB08013846B1FBFEF808FB1B
:1005B0000CF7C8E7414698E7704700BFDFF834D032
:1005C000002103E00C4B5B58435004310B480C4BAB
:1005D00042189A42F6D30B4A02E0002342F8043B49
:1005E000094B9A42F9D303F0C9F924F03FFB01F01B
:1005F00073F8704700000320C81A070800000020A5
:1006000080030020800300207C370120FEE7704734
:1006100008B500F0CDFDBDE8084000F04FBD00F08A
:10062000C9BD704710B50421044622F0DEFF204604
:1006300010BD000038B50C4B0C4C18800C4B8220C0
:1006400019806368984740F6110398420AD1094D12
:1006500023682C60822098472B688220DB689847AB
:10066000002038BD0120FCE7A60300205000002038
:10067000A4030020A80300204FF4A071F020FFF78E
:10068000D9BF0000F7B5394D2B6804461B6982209D
:100690009847208000284FD02B680DF106025B6937
:1006A00001A982209847324BBDF806201B78002B09
:1006B0004AD040F674639A4240D9ADF80630BDF88E
:1006C00006209B1A9AB20A2A42D90B23B2FBF3F2F4
:1006D000284B1B889A4201D9013B9AB2BDF80430DD
:1006E000254840F6B8318B4234D8C3F571630E33D8
:1006F00001689BB20F25B3FBF5F3204D2D88AB426B
:1007000084BF05F1FF35ABB28B421D468EB22AD9AC
:100710009B1B99B21A4F3E68B3B2B2428CBFD31A38
:100720009B1A9BB219440529C8BF05600368C4BF62
:100730003A6016466380A68003B0F0BDB32A9CBF22
:10074000B422ADF80620BAE7A2F5B47292B2BAE7C5
:100750000022C3E7C3F56D6308339BB20E2B01681B
:10076000C8D800252B46C91A89B2D3E7A8030020B0
:1007700024180020A4030020A0030020A6030020CA
:100780009C03002037B568460D461446FFF77AFFF4
:10079000BDF8000030B1BDF802302B60BDF8043068
:1007A0002360012003B030BD032821D8DFE800F02A
:1007B000020B12190F4B1A68B2FA82F25209042185
:1007C0000D4803F011BD0B4B5A68B2FA82F2520980
:1007D0000821F5E7074B9A68B2FA82F25209102114
:1007E000EEE7044BDA68B2FA82F252092021E7E719
:1007F000704700BFAC03002000100240032821D83E
:10080000DFE800F0020B12190F4B1A68003A18BF0C
:10081000012204210D4803F0E7BC0B4B5A68003A53
:1008200018BF01220821F5E7074B9A68003A18BF64
:1008300001221021EEE7044BDA68003A18BF0122CA
:100840002021E7E7704700BFAC0300200010024002
:1008500003280DD8DFE800F00206080A0421054845
:1008600003F0C7BC0821FAE71021F8E72021F6E7DA
:10087000704700BF0010024008B5032811D8DFE818
:1008800000F0020A0C0E0421074803F0A7FC431EE7
:100890005842584108BD0821F6E71021F4E720210D
:1008A000F2E70020F3E700BF0010024070B5084DEA
:1008B00000240126E0B2FFF7DFFF18B12B68012BFF
:1008C00018BF2E600134052C05F10405F2D170BD6E
:1008D000AC030020012380F87C1080F87D30704745
:1008E0007047002070470000034B8164003918BF37
:1008F00001211970704700BF372A0120704700207E
:100900007047C36B0BB10846184770474FF6FF702E
:100910007047406803689B69184770477047704785
:100920007047704710B5044600F05CFD236803492A
:10093000D3F890302046BDE810401847000000D0A2
:1009400008B503680446D3F88430984723682046E6
:10095000DB6F984700F008F9236820465B6F9847E3
:10096000292001F0EBF900F0FFF8236820465B6FC7
:100970009847F8E710B5044609F002FC23682046C2
:10098000D3F8BC30BDE81040184700F00FBD00F0B0
:1009900013BD00F045BD00F0E5BC00F055BD00F012
:1009A0005DBD00F0E9BC08F0DEBD10B5882104464D
:1009B00022F01BFE204610BD10B590F8381090F8BC
:1009C0007C400C4B8C421A7809D03AB90A4A0B4940
:1009D0001488088810800C8001221A7010BD002A2B
:1009E000FCD0054A05491488088810800C80002234
:1009F000F3E700BF362A0120402A01203E2A0120C9
:100A000008B5094B1B888B4203D8084B1B889342BF
:100A100005D9074B074A0848A52123F05BFE074B81
:100A20001980074B1A8008BD402A01203E2A012068
:100A300044580208A7580208EA5802083C2A012034
:100A40003A2A01202DE9F0410D460446194635B9F0
:100A5000154B164A164840F2013123F03BFEC0E91F
:100A600010520368134ED3F89030003A18BF012299
:100A700032709847E569A5B12B681F68337873B168
:100A8000236820465B6B9847236C834207D1616CD7
:100A9000094B28461A883B46BDE8F0411847216CAF
:100AA000F6E7BDE8F08100BF2F5902086759020838
:100AB000EA580208382A01203C2A0120034690F80F
:100AC0007E0018B1586803681B681847704700001B
:100AD000012108B50022084606F074F80A4B186098
:100AE00028B90A4B0A4A28210A4823F0F3FD0022BC
:100AF0000421012006F004F9074B186018B9074BD0
:100B0000034A2C21F0E708BDC0030020B5590208B4
:100B1000FE5902082D5A0208BC0300206C5A020834
:100B2000024B4FF0FF31186806F096B8C003002062
:100B3000014B186806F0BCB8C0030020024B00212E
:100B4000186806F089B800BFC0030020FFF7F0BFA7
:100B500003480449006800231A4606F00CB900BF98
:100B6000BC0300200400002013B5084C00231A46E3
:100B700001A9206806F030F920684FF0FF33002209
:100B800001A906F029F902B010BD00BFBC03002086
:100B900003685B6C18470120704703689B6A18471D
:100BA000FEE740F2EF307047054B0360054B4FF016
:100BB0008062C3F88820BFF34F8FBFF36F8F7047F9
:100BC000A064020800E100E010B504464FF45A6149
:100BD000FFF7EAFF204622F008FD204610BD000086
:100BE00082B0002301930E4B1A6B42F400021A6389
:100BF0001A6B02F400020192019A1A6942F400028F
:100C00001A611A6922F400021A61064B064A5A61F7
:100C1000064A1A61064B4FF080629A6002B0704734
:100C200000380240F41A0020A10B0008690E0008E9
:100C300000E100E008B50A2809D8DFE800F0061056
:100C40000E080808081010101000022008BD054BFF
:100C5000054A0648912123F03DFD0020F6E70120DA
:100C6000F4E700BFAE5A0208C95A0208145B020832
:100C700070B50C46887FFFF7DDFFA58AE28A114B2D
:100C80002169586342EA05425A64628BD963521B58
:100C90001A642668E568082E0DD19A611A615862B7
:100CA000207F094A42EA0062DA61084A1D625961FE
:100CB000D9601A6070BD0022D8611A61044A9D6330
:100CC000F7E700BF00B00240090001000123020065
:100CD0000123030008B50B280BD8DFE800F006124B
:100CE000100A0A0A0A0808080808022008BD052098
:100CF000FCE7054B054A0648702123F0EBFC002079
:100D0000F4E70120F2E700BFAE5A0208515B020887
:100D1000145B02082DE9F04191F81D800C46404615
:100D2000FFF7D8FFA77F05463846FFF7D3FF0646F3
:100D30003846FFF77FFFA18A628B454B521A1A642F
:100D40009A61228B521A1A61E28A586342EA01427E
:100D50005A6421696268D963DA60D4F800C0207FE0
:100D6000BCF1800F4FEA006229D013D8BCF1200FEC
:100D700045EA020064D0BCF1400F61D0BCF1040F21
:100D80005ED0334B154345F40035B845DD615BD08B
:100D9000304A40E0BCF5807F07D0BCF5007FF0D141
:100DA00042F4003242F0090203E042F4003242F021
:100DB0000A02DA61E2681A625E6259612AE0A46896
:100DC0002A4342F40032271DDF62DA6122785E6234
:100DD000596142B1012A21D01F4B204A204840F2DC
:100DE0001B1123F077FCDA69618822F47F42013914
:100DF00022F0100242EA0122DA610121144BDA6981
:100E000042F02002DA61DA699206FCD410229A607C
:100E10000029BDD0134A1A60BDE8F081DA69B0F14B
:100E2000FF01608822F47F4200F1FF3022F01002BF
:100E300042EA002242F0100218BF0121DA61DDE728
:100E400040F40030D861B7E742F20132E3E700BF77
:100E500000B00240012301009B5B0208B55B020861
:100E6000145B020801230200024B1B6858680368E8
:100E70005B691847442A012070B5044625460A4B91
:100E80000C30002660602672667245F8203B6022B6
:100E9000294609F0DFFA04F55A63EE6024359D42D5
:100EA000FBD1204670BD00BFA0640208034B1A6846
:100EB000D207FCD423229A60704700BF00B00240E2
:100EC0007047000030B50F4C2568ED07FCD4232592
:100ED0000904A56041F001010225FF2B65636164EF
:100EE000E0630AD00849656241EA0363E361074BA6
:100EF00022626061E060236030BDE561039BA36313
:100F0000034BF8E700B002400900010001000200B5
:100F10000100030030B50E4C2568ED07FCD42325F5
:100F20001204A56042F001020225FF2B6563626492
:100F3000E063E16008D01B0643F00213E361054B58
:100F400065626061236030BD034BE3610123F9E713
:100F500000B0024001000200020002FF30B50B4C5D
:100F60002568ED07FCD4232512041B06A56043F475
:100F70000033022542F0010265636264E063E160D0
:100F8000E361034B65626061236030BD00B00240E5
:100F900001000200012070470C2070470C2303FB66
:100FA0000100083070470C2303FB01000830704734
:100FB000012070474FF4437070474FF4437303FBB5
:100FC0000100083070474FF4437303FB0100083001
:100FD0007047012070471020704700EB0110083067
:100FE000704700EB011008307047084601F0E0BC84
:100FF00010B5034B0360044607F03FFE204610BDCA
:101000005865020810B50446FFF7F2FF2046142188
:1010100022F0EBFA204610BD10B5034B03600446E6
:1010200007F02BFE204610BD2465020810B50446CB
:10103000FFF7F2FF20464FF4457122F0D6FA204622
:1010400010BD000010B5034B0360044607F015FE09
:10105000204610BDF064020810B50446FFF7F2FF09
:101060002046182122F0C1FA204610BD10B5084BC9
:101070000360044600F55070FFF7BAFF04F12C003E
:10108000FFF7CAFF04F11400FFF7DCFF204610BD94
:101090008C65020808B50248FFF7E8FF08BD00BFED
:1010A000A012002010B50446FFF7E0FF204640F2F2
:1010B000B44122F09AFA204610BD0000F7B501F0C5
:1010C000EFFA054601F0F0FA0024014600942346A9
:1010D0002246284611F070FE284B294A1A60204605
:1010E00002F082F8274B284A28489A6011F0CAFD7E
:1010F000274C2368BFF35B8FDB0738D4204622F0F0
:1011000076FA002833D0234A234B136002F12C07D0
:1011100002F5567502F5507602F1140097605060A2
:10112000D660156107F0AAFDA5F5567238461B4B2F
:1011300053612C3F07F0A2FD194BFB62304607F0CC
:101140009DFD184BC7F8403307F5557002F0D0F8F5
:101150003A4607F55571284602F0C0F8284601F0D6
:1011600027FC114823F0D4FA204622F04CFA0F480D
:1011700003B0BDE8F040FFF7D5BB00BFA02A0120B7
:101180004C0400206C0400205004002008000020C3
:101190009C120020A01200208C650208F064020856
:1011A000246502085865020895100008C403002051
:1011B000704700000148FFF7C3BB00BFC403002015
:1011C00070B5274E274C284D284B23603046FFF73B
:1011D00053FE284617F074F825480FF0E3FA254B24
:1011E0002548DC6000224FF48071C3E913122349C3
:1011F0001A63C3E91B1222499A86C3E91F012149D8
:10120000C3F884102049214883F85C20C3E90422F4
:10121000C3E90622C3E90822C3E90A22C3E90F226F
:10122000C3E91122C3E91522C3E918229A6683F89B
:1012300074209A67C3E901650B60F02101801448AE
:10124000018014484FF4A0710180134801801349B4
:101250000A70012283F83820114A1A6070BD00BF5D
:10126000F8040020981200206C0400203458020872
:1012700050040020C403002000000101010000010F
:10128000000450001A001400442A0120402A0120C2
:101290003C2A01203E2A01203A2A0120362A012038
:1012A000B46302080148FFF77FBC00BFF8040020C8
:1012B0000020704781807047C1807047018170476E
:1012C000418170477047704770477047704710B44E
:1012D000C4880368121B84885B6D091B12B25DF819
:1012E000044B09B218474FF6FF7383814FF0FF3369
:1012F00003621368C36110607047002070478B88D9
:10130000838001207047704780F82610704790F85E
:101310002600704710B50022B1F90840B1F90A1053
:10132000028042808480C18010BD00220280428001
:101330008280C28070470177704780ED080A70474D
:1013400080F82410704780F82510704701207047FE
:10135000983070478C3070478430704770477047C2
:1013600070470000034B902283F85A2383F85823D8
:10137000704700BF00E100E0094A0A49D3680A4803
:10138000C3F30A03013B9BB20B801169C1F30A014D
:10139000013901801364536B43F0010353637047B9
:1013A000006801405617002054170020014BD3F865
:1013B000AC00704700680140024B0122C3F8AC103A
:1013C0005A6270470068014010B52C21044622F093
:1013D0000CF9204610BD10B5BC21044622F005F9D9
:1013E000204610BD70B5044608F013F923689D6EC1
:1013F0000DF06EFF01462046A8472368054AD3F842
:101400008C502046AC460023BDE87040A2F5163152
:10141000604700BF00B004D008F0E2B808F0ECB8B4
:1014200008F0A7B808F013BA90F8252012B10368A5
:101430005B691847704790F825201AB190F824206E
:1014400002B1186070470000034B4FF080629A6051
:101450004FF080729A60704700E100E0084B4FF057
:101460008062C3F88820BFF34F8FBFF36F8F4FF0B8
:101470008072C3F88820BFF34F8FBFF36F8F704720
:1014800000E100E070B50023124E8380124B036030
:10149000336893F85C2005460AB1186D00B9986866
:1014A00003681B6B98473368B0FA80F4186D6409C1
:1014B00030B103681B6B9847002808BF44F0010453
:1014C0002CB9064B064A07482C2123F003F928467D
:1014D00070BD00BF442A0120A0650208F35B02082A
:1014E000515C02088A5C020870B5254E3568BFF36E
:1014F0005B8F15F0010540D1304622F078F80028C6
:101500003BD0204C204B256104F13400C4E9003568
:10151000C4E90255E584A562A5850FF02AFC04F113
:1015200058000AF055FC194BA3652046184B40F8AB
:10153000843BFFF7A7FF174BC4F884302433C4F86B
:101540008C304FF4C803C4E928350023C4F8AC300C
:10155000C4F8B030C4F8B430C4F8B8300E480F4BFB
:10156000C4F89050C4F89C50C4F8A850C4F89830FF
:1015700023F0CEF8304622F046F8024870BD00BF96
:10158000581700205C170020686C0208C06502082C
:10159000386602081C6C020861130008FC6B020824
:1015A00038B5184C23685BB3174B184A1B6C11886D
:1015B0008B4216D1164B198803F00AFC236893F866
:1015C0006E200025013283F86E2083F88050FFF7EB
:1015D000BFFA206808F0D4FD2846BDE83840FFF780
:1015E000E3B803F0F5FB2468236820461B6A98479C
:1015F000012384F880300020BDE83840FFF7FEB8B2
:1016000038BD00BF442A0120006801405617002061
:1016100054170020FEE7000007B5064BADF80600A2
:101620001B68054801220DF1060104F081F903B0A1
:1016300000BD00BF0C000020A019002030B595B0FF
:10164000102200210AA823F04FFA1422002103A837
:1016500023F04AFA00241E4B01941A6C42F0805287
:101660001A641B6C03F080530193019B194B029485
:101670001A6842F440421A601B6803F44043029324
:101680000122029B4FF48033CDE9082302254FF459
:1016900080030821CDE90E534FF4B473CDE9101344
:1016A00008A804231393129503F0EAFB03F0AEFBA2
:1016B0000F23CDE903354FF4A0504FF48053CDE90B
:1016C0000603052103A8059403F0B6FD15B030BD4F
:1016D000003802400070004080B59CB00024C04D2E
:1016E00002F05AF9FFF7AAFF142200210FA823F0F5
:1016F000FBF902942B6BBB4843F010032B632B6B5D
:1017000003F010030293029B03942B6B43F020031E
:101710002B632B6B03F020030393039B04942B6B2D
:1017200043F080032B632B6B03F080030493049B33
:1017300005942B6B43F004032B632B6B03F0040322
:101740000593059B06942B6B43F001032B632B6BD6
:1017500003F001030693069B07942B6B43F00203EF
:101760002B632B6B03F002030793079B08942B6BEF
:1017700043F040032B632B6B03F040030893089B5B
:1017800009942B6B43F008032B632B6B03F00803C6
:10179000224609933C21099B02F026FD9248012232
:1017A000022102F021FD22468F48042102F01CFD97
:1017B00022468E484FF4405102F016FD22468C48D6
:1017C0004FF4005102F010FD01263C23CDE90F3605
:1017D0008448119403230FA90227129302F01AFCE4
:1017E00081480FA9CDE90F76CDE9114402F012FC32
:1017F00004237D480FA9CDE90F36CDE9114702F04A
:1018000009FC4FF4405379480FA9CDE90F36CDE9D3
:10181000114702F0FFFB4FF4005375480FA9CDE9C3
:101820000F36CDE9114402F0F5FB01942B6B43F424
:1018300000132B632B6B03F4001305212246019345
:101840001020019B02F0FAF8102002F029F9694AF1
:10185000694B1360104602F031F9684A684B136017
:10186000684BD460C2E9013410464FF48043C2E9AA
:101870000434C2E90644146202F0D0FE10215F482D
:1018800003F012F921465D4803F02DF95E4A5F4BE3
:1018900013604FF48273C2E901344FF400711823CE
:1018A000C2E9061310460A23C2E90344C2E9084408
:1018B00054619462D36203F0DFFF8F2322463946DE
:1018C00049488DF82C308DF83C4002F08DFC3246B2
:1018D0004FF47A730BA94C4804F02AF84FF47A734A
:1018E00032460FA9484804F0CFF9324639463E48FF
:1018F00002F07AFC9DF83C30454AD32B04BF454B9F
:101900001E70454B136004271023C2E90373402166
:101910004FF4C0730024C2E905134FF40063C2E919
:1019200008344FF40053012502264FF00309936257
:101930000FA907231046CDE90F63CDE911734FF0CE
:101940000808C2E90154CDE91396D461159603F055
:1019500077FE4FF6FF720BA92D480B95CDE90C854C
:101960000A940E9403F08CFE284602F041F84FF6DC
:10197000FF720BA92648CDE90D54CDE90B6803F0A1
:101980007FFE4FF6FF720BA92148CDE90B98CDE9F8
:101990000D7403F075FE4FF40C730A930A9B1C48F8
:1019A0000E934FF6FF720BA90D95CDE90B7803F05E
:1019B00067FE40F26A51164803F080FE2146342249
:1019C0000FA823F091F8154A154B1461C2E90034B1
:1019D0000923C2E905351D23C2E9073922E000BF0A
:1019E000003802400010024000080240000C024093
:1019F00000180240341B002000300240A01A0020D2
:101A0000005C0040A0860100A019002000500140A9
:101A10003418002024180020400100A0F8190020EC
:101A20000068014040F20D1040F2431340F2171CD1
:101A3000C2E9090340F247131046C2E90BC3C2E9E9
:101A40000244948682F8364003F0E0F8FF214FF418
:101A5000806ECDE914140521CDE916E1F0224FF096
:101A600050414FF4A073CDE91812CDE910240FA90D
:101A700022466348DFF8D0911A93CDE912360F94CD
:101A8000ADF86C408DF86E4003F074F95D4BC9F809
:101A900000301B689847D9F80030DFF8B091DB6858
:101AA0009847594A594B1046C2E90034C2E90264CA
:101AB000C2E90A46C2E90C4402F0B2F9294652488A
:101AC000534D02F063FA1C2221460FA823F00CF8B4
:101AD00040F20773C5E9009340F6C313C5E9033428
:101AE00028468023AB61AC604FF0600904F044FBF2
:101AF00040F2E24322460FA92846CDE90F93119404
:101B0000139404F095FB2146284604F069FC2A68EA
:101B1000D36843F00103D360284600F067FB3D4AD9
:101B20003D4B13604FF4E133C2E9013410460C23FE
:101B30003A4DD461C2E90534C2E9034404F01EFD04
:101B400021461C220FA8CDE90B4422F0CDFF4FF017
:101B50008042B323C5E90023284646F2A713C5E90E
:101B60000334AC60AC6104F007FB0BA92846CDE957
:101B70000B4404F037FC43F2D40322460FA9284655
:101B8000CDE91034CDF83C90139404F051FB284675
:101B900004F0A0F92146284604F022FC2A68D36804
:101BA00043F00103D360284600F020FBFEF730FD30
:101BB000FEF72DFD1A491748324604F0DCFE04F00A
:101BC00091FF184A3946384605F09AF8164B2246D6
:101BD00018603946404605F093F8144B144A1860D3
:101BE0002146144804F0AAFF134B144A18602146FA
:101BF000134804F0A3FF134B186004F085FFFEE7C1
:101C0000F819002018000020F41A002000B002404B
:101C100010190020C8180020004400405819002066
:101C20001C1800207C6602082818002020180020BC
:101C3000B8660208151600083018002094660208DD
:101C40001F0600082C180020181800200040014032
:101C5000704770477FB5084B8DF817201B680293BB
:101C60000DF117020123009201930A460146034831
:101C700002F07CFD07B000BD10000020A01A00207B
:101C80007FB500238DF81730084B1B6802930A4676
:101C900001230DF11701009101930146044802F060
:101CA000F5FD9DF8170007B000BD00BF1000002033
:101CB000A01A00201FB5084C24680092CDE9013419
:101CC0000A4601230146054802F0E0FD003818BF2E
:101CD000012004B010BD00BF10000020A01A002099
:101CE00001F086BE08B506480022042102F07CFA05
:101CF000BDE8084002480122042102F075BA00BF85
:101D00000008024010B5012204464FF40051094872
:101D100002F06AFA00220421074802F065FA204620
:101D2000FFF77AFCBDE8104003480122042102F0CD
:101D30005BBA00BF000C02400008024010B5002250
:101D400004464FF40051094802F04EFA00220421E3
:101D5000074802F049FA2046FFF75EFCBDE8104054
:101D600003480122042102F03FBA00BF000C0240E8
:101D70000008024037B505460C46124800220421EF
:101D800002F032FA00224FF400510F4802F02CFA10
:101D90002846FFF741FC0D4B0D481B68224601A960
:101DA00003F072FF0848019C01224FF4005102F039
:101DB0001BFA04480122042102F016FA204603B05F
:101DC00030BD00BF00080240000C02400C000020A3
:101DD000A019002001F00CBE0268034B9A4201D109
:101DE00001F0F4BD704700BF00100040704770471D
:101DF00082B00E4B00220092596C41F4804159642C
:101E0000596C01F48041009100990192196C41F0E4
:101E1000805119641B6C03F080530193019B0F21C7
:101E20006FF0010002B001F009BE00BF00380240AF
:101E30000268094B9A4282B00BD100230193074BF1
:101E40001A6B42F480521A631B6B03F480530193A4
:101E5000019B02B0704700BF0030024000380240D2
:101E600007B50E4B02689A4216D10022A3F5F04343
:101E70000192196B41F4000119631B6B03F4000319
:101E8000019305215A20019B01F0D8FD5A2003B08F
:101E90005DF804EB01F004BE03B000BD00B00240E9
:101EA0002DE9F043044689B01422002103A822F052
:101EB0001BFE2268244B9A4243D1244C244800251F
:101EC0000095236B43F004032363236B03F00403A7
:101ED0000093009B0195236B43F001032363236B65
:101EE00003F001030193019B4FF012094FF40073BB
:101EF0004FF001080327042603A9CDE90339CDE9F2
:101F00000587079602F086F84FF48073114807960C
:101F100003A9CDE90339CDE9058702F07BF80295E5
:101F2000236C43F400032364236C03F40003029343
:101F3000029B236A43F400032362236A23F4000311
:101F4000236209B0BDE8F083005C00400038024025
:101F50000008024000000240F0B599B00446142287
:101F6000002107A822F0C0FD30220DEB0200002165
:101F700022F0BAFD22685E4B9A4240F0B7800823F7
:101F80000C93C0231093042312930CA84FF4003336
:101F9000159303F029FA08B1FFF729FF554B56486E
:101FA000002400945A6C42F080625A645A6C02F029
:101FB00080620092009A01941A6B42F020021A6328
:101FC0001A6B02F020020192019A02941A6B42F0FD
:101FD00001021A631A6B02F001020292029A039440
:101FE0001A6B42F002021A631A6B02F002020392A9
:101FF000039A04941A6B42F040021A631A6B02F0BF
:1020000040020492049A05941A6B42F004021A6387
:102010001A6B02F004020592059A06941A6B42F0BC
:1020200008021A631B6B03F00803069302250E26B1
:10203000069B0B964FF4806307A9CDE90735CDE9E0
:10204000094501F0E7FF41F658032C480B9607A914
:10205000CDE907350927CDE9094501F0DBFF032369
:1020600027480B9707A9CDE90735CDE9094501F0C8
:10207000D1FF4FF4706322480B9607A9CDE90735CD
:10208000CDE9094501F0C6FF4FF40C631D480B96DE
:1020900007A9CDE90735CDE9094501F0BBFFC0230C
:1020A00019480B9607A9CDE90735CDE9094501F097
:1020B000B1FF082315480B9607A9CDE90735CDE9EF
:1020C000094501F0A7FF4FF4A0530E480B9707A94D
:1020D000CDE90735CDE9094501F09CFF582022469E
:1020E000052101F0ABFC582001F0DAFC19B0F0BD7D
:1020F0000068014000380240001402400000024025
:10210000000402400018024000080240000C024097
:1021100010B5044688B01422002103A822F0E4FC84
:102120002268144B9A4223D103F5684300210191A0
:102130005A6C114842F480125A645A6C02F48012AC
:102140000192019A02911A6B42F020021A631B6BF2
:1021500003F020030293029B4FF4607202230321D9
:10216000CDE903230523CDE9061303A901F052FFAE
:1021700008B010BD00500140001402400368B3F1E4
:10218000804F07B516D103F50E3300220092196C6B
:1021900041F0010119641B6C03F0010300931C2042
:1021A0000521009B01F04AFC1C2003B05DF804EB04
:1021B00001F076BC0B4A934211D10B4B00220192E5
:1021C000596C41F4803159645B6C03F480330193A2
:1021D00018200521019B01F031FC1820E5E703B030
:1021E00000BD00BF004001400038024010B5044669
:1021F00088B01422002103A822F076FC2368B3F1F2
:10220000804F17D100230193164B1A6B42F0010245
:102210001A631B6B03F0010301930222019B0692D8
:102220000123CDE903321048079303A901F0F2FE20
:1022300008B010BD0D4A9342FAD100230293094B16
:102240001A6B42F001021A631B6B03F00103029345
:10225000029B04220223CDE90323CDE905330323A6
:10226000E1E700BF003802400000024000400140AA
:1022700070B5064688B01422002103A822F034FC71
:102280003268244B9A4242D1002503F5FA33019576
:102290001A6C2148214C42F400321A641A6C02F480
:1022A00000320192019A02951A6B42F008021A63F9
:1022B0001B6B03F008030293029B60220223CDE90B
:1022C000032303210723CDE9061303A901F0A2FE8E
:1022D00013484FF00063C4E900034FF480632046C5
:1022E000C4E90255C4E90435C4E90655C4E90855F2
:1022F00001F00AFC08B1FFF77AFD2620F463002202
:102300000521A66301F09AFB262001F0C9FB08B065
:1023100070BD00BF00440040000C0240681800205F
:10232000886002402DE9F04186B0002303932B4BD7
:102330001C68002C4FD14FF00108C3F80080284BD7
:1023400000949A6B274842EA08029A639B6B03EA5F
:1023500008030093022703260C25009B01A94FF6D2
:102360003F03CDE90137CDE9046501F053FE1E4876
:10237000059501A9CDE90187CDE9034601F04AFEA3
:1023800048F233131948059501A9CDE90137CDE984
:10239000034601F03FFE4FF683731548059501A9EA
:1023A000CDE90137CDE9034601F034FE4CF2037369
:1023B0001048059501A9CDE90137CDE9034601F0A3
:1023C00029FE60230C48059501A9CDE90137CDE927
:1023D000034601F01FFE06B0BDE8F0813C1B002063
:1023E0000038024000140240000802400018024079
:1023F00000100240000C02400004024030B589B0D9
:1024000000230293204B1A6C42F010021A641B6CDA
:1024100003F010030293054601A903A8029B02F0F2
:10242000C5FF069B4BBB02F0A1FF184A184B136077
:1024300040F2E733D360174BB0FBF3F3013B53603B
:102440001046002313619360936103F069FE044614
:1024500080B90E4803F03EFD044658B9362001F01D
:102460001FFB0F2D0DD822462946362001F0E6FA33
:10247000094B1D60204609B030BD02F077FF4000D7
:10248000D3E70124F6E700BF00380240401B0020DC
:102490000010004040420F00800000207047FEE71F
:1024A000FEE7FEE7FEE77047014801F0FBBB00BF17
:1024B0006818002010B51D4C21680B69DB0722D578
:1024C000CB68D8071FD56FF001030B61184B1B6851
:1024D0009BB2642B25D833B3C3F164005843000189
:1024E000144AB2FBF0F24FF6FF70824228BF024658
:1024F00064205343B3FBF0F3501E9A4298BF034647
:10250000C862E0604B63094803F021FD23681A6943
:10251000910705D5DA68920744BF6FF002021A618D
:1025200010BD6423D8E74FF6FF72E1E710190020D1
:102530001400002000E1F505014803F008BD00BFCC
:1025400058190020014804F0ADB800BFC818002099
:10255000014803F0FCBC00BF401B0020014802F012
:10256000ACBB00BFF8190020014801F085BC00BFDA
:10257000F41A002002680F4B9A4213B517D10E4C83
:102580000E480222214604F0F6F9627823780C48BE
:1025900003EB02236422B3FBF2F30A4A00681360E0
:1025A0001368019300231A4601A904F0E4FB02B06A
:1025B00010BD00BF004400401C180020C8180020B7
:1025C00020180020140000200120704708B522F0D8
:1025D00047FB162303604FF0FF3008BD08B522F01B
:1025E0003FFB16230360FEE770B50D4614460E460A
:1025F000731B9C4201DC204670BDAFF3008006F8DF
:10260000010BF5E770B50D4614460E46731B9C4250
:1026100001DC204670BD16F8010BAFF30080F5E732
:102620004FF0FF3070474FF400534B60002070476D
:102630000120704700207047094A08B5034610681A
:1026400008B908481060034469468B4206D922F055
:1026500007FB0C2303604FF0FF3008BD1360FCE75D
:10266000881B002080370120704710B504210446E4
:1026700020F0BBFF204610BD012908B506D0022975
:1026800008D059B900F0FCFD006808BD00F0F8FD65
:102690004068FAE700F0F4FD8068F6E70020F4E710
:1026A00000487047F06602080520704713B5002403
:1026B00051B1036801948DF8034001AA9C680DF1A3
:1026C0000303A04702B010BD0846FBE7C08970476E
:1026D000008A7047C088704780887047807A00F011
:1026E0007F007047807AC009704700207047000063
:1026F0009FED010A704700BF00000000704710B551
:102700000821044620F071FF204610BD7047704735
:1027100000F598730868496803C3704770477047AD
:102720004160704770477047064BC0F84C3100233A
:10273000C0F8503100F5A273C0F84801C0F840312C
:10274000704700BFE52700080123037270477047F8
:10275000D0E90232416810B4541001EB6200D20794
:1027600048BF0A595DF8044B48BFD3581847034681
:10277000406830B19A681AB9D86800F00100704713
:102780000120704710B50C21044620F02EFF204692
:1027900010BD10B51021044620F027FF204610BDC3
:1027A00010B54FF4AE71044620F01FFF204610BD57
:1027B00010B50CF08DFD0368BDE81040DB6B1847C9
:1027C00010B50446D0F8400158B10368DB6898475B
:1027D00038B1D4F8400103689B6898470023C4F8D7
:1027E000403110BD2DE9F14FD0E9556A0746B06878
:1027F00003681B6A9847B0F5437F05D2444B454AAE
:10280000A321454821F066FF706803681B6A98475A
:102810000F2803D8414B3F4AA421F2E7F068036830
:102820001B6A98470B2803D83D4B3A4AA521E8E795
:102830000CF04EFDDFF8F09004300CF089FDD9F873
:10284000000010B10368DB689847D9F8000010B1A8
:1028500003681B689847DFF8D480D8F8000010B1EF
:1028600003685B699847D7F83C0110B103685B685F
:102870009847D8F8000010B103681B689847D7F84C
:102880003C0110B103689B689847F0680368002119
:102890005B6A98474FF0000B224BC0F804B0044627
:1028A00080F808B00360B068036859465B6A9847CF
:1028B000054600F077FD7068036859465B6A9847E3
:1028C0002946064600F04CFD331DC7F83C61C9F8A7
:1028D0000040C8F80050CAF800302B68C6F808A0BD
:1028E0002846DB68EE639847336830461B68984794
:1028F000214628460EF031FF236820461B69984781
:1029000023685B69204601B0BDE8F04F184700BF5F
:102910000D5D02089B5D02086D5E0208B45E020850
:10292000575F0208D86702088C2A0120902A0120EC
:10293000044B1B6893F85C200AB1186D00B99868C5
:10294000704700BF442A0120F8B5174604460E46DA
:102950000CF0D0FD124B1C60124B2360124B002573
:10296000C4E95135114BC4E9535518680368012176
:102970009B68C4E94F55C4E955769847284600F04E
:1029800033FCFFF7D5FF17F04AFBFFF7D1FF17F035
:10299000C1FBFFF7CDFF17F0C9FB2046F8BD00BF14
:1029A000942A0120846702086C670208442A0120E7
:1029B000064BC0F84C310023C0F8503100F5A2732B
:1029C000C0F84801C0F84031704700BFE527000853
:1029D000406A7047806A704770478A880B8810B5D4
:1029E000D20A4C88C1699BB251F8220043EA0443E1
:1029F000184410BD10B50446BAB1107B68B1537BC2
:102A0000D27A1B0203F4E0631A43236A03EB8203C6
:102A10001A888A4202D193F9020010BD05D8013804
:102A200080B204330028F3D1F7E70020F5E710B5B2
:102A30002C21044620F0D9FD204610BD30B58BB0C6
:102A40000446BDF860500895BDF85C5007959DF8A8
:102A5000505006959DF84C5005959DF848500495AA
:102A60009DF8445003959DF8405002959DF83C50C8
:102A70000195BDF8385000950EF038FA064B2360EA
:102A8000159BE361169B2362199B63621A9BA362E9
:102A900020460BB030BD00BFFC670208704770478E
:102AA00070477047704730B5036885B0D3F88430FD
:102AB000018104460146684698479DE807003C347A
:102AC00084E8070005B030BD30B5036885B0D3F8A1
:102AD0008430418104460146684698479DE80700D6
:102AE0003C3484E8070005B030BD002202804280FB
:102AF0008280C280704780F83610704770B50368D6
:102B000004461B6B154698472368294620465B6E92
:102B1000BDE87040184700207047806C70477047D0
:102B200070477047704770477047D0E9023230B441
:102B30004468551004EB6200D20748BF625930BCAC
:102B400048BFD35818470346406830B19A681AB94D
:102B5000D86800F0010070470120704710B54C2183
:102B6000044620F042FD204610BD10B51021044659
:102B700020F03BFD204610BD10B54FF443710446D4
:102B800020F033FD204610BD08B5FEF74DFC08BD12
:102B900000F51673994270B504460D4602D10368DC
:102BA000DB6A984704F528739D4205D123682046C7
:102BB0001B6BBDE87040184770BD0000036870B51E
:102BC0005E6B124B1B6804468DB22BB9104B114A39
:102BD0006C21114821F07EFD1049828D09889142B7
:102BE00003D80F4B0B4A6D21F3E713F812200D4B5E
:102BF0001B6853F8220003681B6B9847291A334659
:102C0000204609B2BDE87040184700BFA42A012041
:102C1000FA5F02083C60020877600208982A0120E7
:102C2000BE6002089C2A012000224FF0FF31C0E95B
:102C300000218260704770B5036804461B6B15461F
:102C400098472368294620465B6BBDE870401847CB
:102C500070B504461D46BDF91060FFF7ECFF236810
:102C6000294620469B6B9847236831462046DB6BFC
:102C7000BDE8704018470000F8B5194B018F1B885C
:102C80008B4206462AD9174B1B682BB9164B174A9D
:102C900017486C2121F01EFD13F81120154B1B68FD
:102CA00053F82250144B186800F0DAFA2B680746E4
:102CB0009B6B284698472B6804469B6C39462846F0
:102CC00098472B6814FB00F45B6A394628469847FE
:102CD000A4B223181BB2A6F84630F8BD0023FAE7C9
:102CE000982A0120A42A0120FA5F02083C60020809
:102CF000776002089C2A0120A02A01202DE9F04FCC
:102D000004468BB00EF08EFB934B2360934B2364F1
:102D1000002504F16C064FF48077FF236766304688
:102D200084F86630C4E91155C4E91355C4E9155552
:102D3000C4E91755E563A56609F008FA884BC4F89D
:102D400034324FF6FF73A4F838324FF47F03C4F8DF
:102D500040324FF0FF39834BC4F80C3204F5167A39
:102D6000C4F83072C4E98455C4E98655C4E988556D
:102D7000C4E98A55C4E99395C4F83C52A4F8445276
:102D8000C4F84852C4F85452504604F5287809F063
:102D9000CBFD404609F0C8FD734BC4E9BF34734B0B
:102DA00004F1400BC4E9C1354FF4A0732A465846DC
:102DB00000932946F023FFF74BFF271D4FF07F4379
:102DC0005946A366384606F034F94FF0AE0B4FF083
:102DD0000303304608A9ADF8203006F0BDF8F02313
:102DE0003046CDF800B02A462946FFF731FF782259
:102DF0001146304609F04EFA304670226FF07001ED
:102E000009F0BEFA2B46642230462946009505F0AB
:102E10004BFF3046322109F069FA4323072230463E
:102E2000042109F023FA3046012109F0C1F93046A6
:102E3000012109F0C0F93146384604F5037606F061
:102E4000F8F85A461F213046FFF7F5FE484BC4F804
:102E50003C32D4F80C32A4F840520DF1080B58461D
:102E6000D3F88430314698479BE8070004F5127385
:102E700083E807003F4B1B6804F53A7B2BB93E4BB8
:102E80003E4A60213E4821F025FC3E4B1B881BB981
:102E90003D4B3A4A6121F5E73C4B2946186800F062
:102EA000DFF93B4A03460A2158460FF0DEFEC4F81C
:102EB00054B2304609F082F8294B089308A94FF024
:102EC00003033046ADF8243009F098F8314638460F
:102ED00006F0AFF850464FF487728221FFF7ABFE41
:102EE0000226012308AA07A95046ADF81C3004F5B4
:102EF0003F7BADF8206009F058FA5046A4F8906284
:102F0000FFF7BAFE51463846C4E9A599C4F880B225
:102F100006F08FF8294640464FF48772FFF78BFE84
:102F200008AA07A94046ADF81C50ADF8206009F08A
:102F30003CFA0123A4F8D8324046FFF79DFE3846FC
:102F4000C4E9B799C4F8C8B2414606F072F8204601
:102F50000BB0BDE8F08F00BF0C6902082C6D0208B1
:102F60005C67020864680208F4680208912B000894
:102F700017FF00FFA42A0120FA5F0208FC60020884
:102F800077600208982A0120BE600208A02A01206A
:102F9000476102087047000030B5164D8FB02C68AD
:102FA000BFF35B8F14F0010420D1284620F01FFBF3
:102FB000E0B13F230993104B0893104B104911487F
:102FC0000A940122CDE906430423CDE903320A2302
:102FD0000093CDE90B44CDE901440594FFF72EFDA4
:102FE000094821F095FB284620F00DFB05480FB05D
:102FF00030BD00BF8C1B0020088402081484020826
:1030000088820208901B0020952F0008704700005E
:1030100030B5164D8FB02C68BFF35B8F14F00104F0
:1030200021D1284620F0E3FAE8B13F230993104B61
:103030000893104B104911480A94CDE90643012228
:103040000423CDE90332142300931922CDE90B4464
:10305000CDE901440594FFF7F1FC094821F058FB44
:10306000284620F0D0FA05480FB030BDBC1B002028
:103070000C8402081884020898820208C01B0020F1
:103080000D3000087047000030B5164D8FB02C6829
:10309000BFF35B8F14F0010420D1284620F0A7FA7B
:1030A000E0B13F230993104B0893104B104911488E
:1030B0000A940122CDE906430423CDE903322823F3
:1030C0000093CDE90B44CDE901440594FFF7B6FC2C
:1030D000094821F01DFB284620F095FA05480FB05D
:1030E00030BD00BFEC1B0020108402081C840208C5
:1030F000F8830208F01B002085300008002070478C
:10310000002070470EB403B503AB002153F8042B25
:1031100001930DF06FF902B05DF804EB03B0704756
:103120000CB407B504AB53F8042B01930DF062F90E
:1031300003B05DF804EB02B070470000436C10B5BB
:10314000044673B3038F2BB9184B194AC52119488C
:1031500021F0C0FAC38E00EB43035B8C0BB30FF07E
:1031600021F8238F012B03D8134B144ACB21EEE710
:10317000E28E531C9BB2092B194688BFA3F10A01AA
:1031800004EB410140F63F10498C814209D10A2BE2
:1031900004EB420228BF002304EB4303508C588405
:1031A00051842046BDE810400EF0FFBE4A6102087F
:1031B00053610208FE610208486202085662020872
:1031C0000EF0BBBE10B586B002AC84E806001A460D
:1031D0000AAB05930193099B00932146089B0BF0D2
:1031E000ECFB06B010BD000038B518BB124B1348FD
:1031F0001C681349B4B12268224402606268224408
:103200000A60A26814440F4B00221A8000F038F8BC
:10321000054600F033F80C4B1C600C4B1D600C4B4A
:10322000188007E00B4B03600B4B0B600B4B1C68CB
:10323000002CE8D138BD00BF281C0020201C002035
:103240001C1C0020241C0020A42A01209C2A0120F0
:10325000982A01203084020820840208406902086C
:10326000044B1B6853F82100034B1B6803EB400021
:10327000704700BF1C1C0020201C00200420704749
:10328000004870472C1C002010B5FFF7C1FE044C0D
:103290002060FFF7F9FE6060FFF77EFEA06010BDC2
:1032A0002C1C002010B5002404600C6014601C600D
:1032B00010BD704710B54FF4AE71044620F095F97B
:1032C000204610BD10B50446D0F8580100F014F89F
:1032D0002046BDE810400CF09DB8000010B5044633
:1032E000FFF732FB014B2360204610BD4C690208FA
:1032F000002202607047000013B50446074800230F
:1033000000681A4601A903F067FD28B9206818B1C2
:10331000036801999B68984702B010BD20180020EF
:10332000014B00221A607047381C00207047043897
:1033300070478368043018607047704710B51021DB
:10334000044620F052F9204610BDA0F10400F5E734
:10335000C06800F03BB8A0F10400FFF7F9BF00001F
:1033600000228260024A02601C324260C1607047E3
:10337000A06902087047000010B5034B03600446C3
:10338000FFF7D1FB204610BDD069020810B50446F6
:10339000FFF7F2FF20464FF4437120F026F9204654
:1033A00010BD000010B50446FFF7A8FC014B2360D8
:1033B000204610BDD069020810B50446FFF7B4FBE3
:1033C000014B1C6010BD00BF3C1C002070B500F11B
:1033D0006C06044630460D4608F088FF304604F57A
:1033E0003A760DF02FF92B46074A0A2130460FF0A6
:1033F0003CFC04F50374A664204608F0DFFD20467B
:10340000BDE870400DF01EB928630208044B1A682D
:103410005E2ADEBF1A6805321A601968FFF7D6BF48
:1034200014000020044B1A68052AC2BF1A68053A26
:103430001A601968FFF7CABF14000020F020704717
:103440004FF4A07070472920FEF778BC2820FEF7C3
:1034500075BC08B5FEF746FCCA20FEF76FFCC3201A
:10346000FEF750FC0820FEF74DFC5020FEF74AFC0A
:10347000CF20FEF763FC0020FEF744FCC120FEF7DE
:1034800041FC3020FEF73EFCED20FEF757FC6420A7
:10349000FEF738FC0320FEF735FC1220FEF732FC65
:1034A0008120FEF72FFCE820FEF748FC8520FEF780
:1034B00029FC0020FEF726FC7820FEF723FCCB2019
:1034C000FEF73CFC3920FEF71DFC2C20FEF71AFC11
:1034D0000020FEF717FC3420FEF714FC0220FEF754
:1034E00011FCF720FEF72AFC2020FEF70BFCEA2057
:1034F000FEF724FC0020FEF705FC0020FEF702FC8E
:10350000B120FEF71BFC0020FEF7FCFB1B20FEF7A2
:10351000F9FBB620FEF712FC0A20FEF7F3FBA2200F
:10352000FEF7F0FBC020FEF709FC1020FEF7EAFBD7
:10353000C120FEF703FC1020FEF7E4FBC520FEF7D8
:10354000FDFB4520FEF7DEFB1520FEF7DBFBC72069
:10355000FEF7F4FB9020FEF7D5FB3620FEF7EEFBDE
:10356000C820FEF7CFFBF220FEF7E8FB0020FEF7B5
:10357000C9FBB020FEF7E2FBC220FEF7C3FBB6207A
:10358000FEF7DCFB0A20FEF7BDFBA720FEF7BAFB27
:103590002720FEF7B7FB0420FEF7B4FB2A20FEF736
:1035A000CDFB0020FEF7AEFB0020FEF7ABFB0020BA
:1035B000FEF7A8FBEF20FEF7A5FB2B20FEF7BEFBD6
:1035C0000020FEF79FFB0020FEF79CFB0120FEF78A
:1035D00099FB3F20FEF796FBF620FEF7AFFB01209C
:1035E000FEF790FB0020FEF78DFB0620FEF78AFB1E
:1035F0002C20FEF7A3FBC820FEF7ECFB2620FEF7ED
:103600009DFB0120FEF77EFBE020FEF797FB0F20DD
:10361000FEF778FB2920FEF775FB2420FEF772FBEE
:103620000C20FEF76FFB0E20FEF76CFB0920FEF767
:1036300069FB4E20FEF766FB7820FEF763FB3C201B
:10364000FEF760FB0920FEF75DFB1320FEF75AFB37
:103650000520FEF757FB1720FEF754FB1120FEF75D
:1036600051FB0020FEF74EFBE120FEF767FB002038
:10367000FEF748FB1620FEF745FB1B20FEF742FB3A
:103680000420FEF73FFB1120FEF73CFB0720FEF76E
:1036900039FB3120FEF736FB3320FEF733FB4220A7
:1036A000FEF730FB0520FEF72DFB0C20FEF72AFB72
:1036B0000A20FEF727FB2820FEF724FB2F20FEF729
:1036C00021FB0F20FEF71EFB1120FEF737FBC82061
:1036D000FEF780FB2920FEF731FBBDE808402C20D7
:1036E000FEF72CBB08B5FEF7FDFA0321D320FEF749
:1036F00041FB80B208BD10B5C4B2022203212046AE
:10370000FEF7A8FA0A20FEF7EBFA20460022032172
:10371000FEF7A0FABDE810400220FEF7E1BA38B586
:103720000446E4B2FEF794FA00212046FEF7A8FA18
:10373000012105462046FEF7A3FA40EA052080B2A3
:1037400038BD10B5C4B240212046FEF799FA0306F1
:1037500007D54C212046FEF793FA003818BF012008
:1037600010BD01224B212046FEF774FA20460022AC
:103770004B21FEF76FFA0020F2E773B50423C4B2C1
:103780000E461546D7210DEB03022046FEF792FAAE
:10379000019B1BBA1A0DC3F30B23328020462B80EA
:1037A00001224B21FEF756FA00224B212046FEF75C
:1037B00051FA02B070BD000010B50A4A1378984261
:1037C00004460DD0517888420AD00BB141B901238B
:1037D000D454FEF73DFA2046BDE81040FFF78BBFFA
:1037E00010BD00BF401C002010B5C4B20921204606
:1037F000FEF746FA40F00102D2B220460921BDE8A8
:103800001040FEF727BA10B5C4B209212046FEF7D2
:1038100037FA092100F0FE022046BDE81040FEF70D
:1038200019BA38B5C4B20D4620460A21FEF728FA67
:1038300040EA0502D2B220460A21BDE83840FEF730
:1038400009BA10B50446FEF704FA20461F21FFF717
:10385000E8FF2046BDE81040FFF7C6BF38B5C4B248
:103860000D4620460A21FEF70BFA20EA0502D2B2E5
:1038700020460A21BDE83840FEF7ECB910B50446F1
:10388000FFF7C1FF20461F21BDE81040FFF7E6BF4C
:1038900010B5C0B20C460B21FEF7F2F9204010BD66
:1038A0001F21FFF7F5BF0A46C0B20B21FEF7D2B9C0
:1038B0001F21FFF7F8BF38B5C4B20D4620461721C7
:1038C000FEF7DEF920EA0502D2B220461721BDE854
:1038D0003840FEF7BFB970B5C4B206460421204691
:1038E000FEF7CEF9042100F0FB0205462046FEF764
:1038F000B1F93046F021FFF7DEFF05F0F80220466F
:103900000421FEF7A7F9492220212046FEF7A2F95B
:103910000220FEF7E5F9204601222121FEF79AF95F
:1039200020469A224121FEF795F9204601224A219C
:10393000FEF790F9204601224B21FEF78BF9204635
:1039400000224B21FEF786F9204601225621FEF780
:1039500081F9204601225821FEF77CF920460122F8
:103960004021FEF777F92046FF220B21FEF772F97E
:10397000BDE870400220FEF7B3B90000054BD3F854
:10398000882042F47002C3F888204FF000629A60E9
:10399000704700BF00ED00E008B50B4B1A6842F419
:1039A00000721A601A6842F480621A601A6842F45F
:1039B00080721A60032000F02FF80020FEF71EFD31
:1039C000FEF716FA002008BD003C0240034A044BF3
:1039D00011681B780B441360704700BF441C002023
:1039E0007C000020014B1868704700BF441C002079
:1039F00038B50446FFF7F6FF631C1CBF054B1B7868
:103A0000054618BFE418FFF7EDFF431BA342FAD3A6
:103A100038BD00BF7C0000200749CA6822F4E0627C
:103A20000302120403F4E063120C134343F0BF6378
:103A300043F40033CB60704700ED00E0164B30B527
:103A4000DC68C4F30224C4F10703251D042B28BF3E
:103A50000423062D4FF0FF358CBF033C002405FAEC
:103A600003F321EA0303A54022EA0502A34000284C
:103A700043EA0203ACBF00F16040084A4FEA031377
:103A8000B8BF00F00F00DBB2AABF00F561401354CD
:103A900080F8003330BD00BF00ED00E014ED00E021
:103AA000002807DB044A4109012300F01F0083407E
:103AB00042F82130704700BF00E100E010B5044635
:103AC00050B1437903F0FF0213B90271FEF7B0F968
:103AD00001236371002010BD0120FCE7036810B5CD
:103AE000084C0246D9B210391820B1FBF0F0205C26
:103AF000D06523F47F7020F003005F2988BF043075
:103B0000906510BD1C6A020870B50446FFF76AFF95
:103B10000546002C60D0022384F83530226800234B
:103B200084F83430136823F00103136022681368AB
:103B3000D8072ED413683248A1691840D4E901355A
:103B40002B43E5682B4325692B4365692B43E569C6
:103B50000B432B43256A2B430343606A042802BFAF
:103B6000D4E90B5635432B4313605369042823F0E3
:103B7000070343EA000335D1A06AE56A03438DB326
:103B800091B9012820D030F002012BD1E90129D5CB
:103B90001DE0FFF727FF401B0528C7D9202303207E
:103BA000636584F8350070BDB1F5005F16D1032858
:103BB00018D801A151F820F0CF3B00088D3B000838
:103BC000CF3B0008C93B0008B5F1C07F0AD14023B4
:103BD0006365012384F835300120E4E70228F6D933
:103BE0000328D3D053612046FFF778FFE26D3F23CF
:103BF0009340836000200123606584F83530D2E76C
:103C00003F8010F070B50446866DFFF7EBFE94F828
:103C10003530022B054606D0802363650120002342
:103C200084F8343070BD23681A6822F016021A60D6
:103C30005A6922F080025A61226C0AB9A26C1AB148
:103C40001A6822F008021A601A6822F001021A604B
:103C50002368186810F0010007D1E26D3F239340FC
:103C6000B360012384F83530D9E7FFF7BBFE401B72
:103C70000528EDD920230320636584F83500CEE7BD
:103C800090F83530022B03D0802343650120704724
:103C90000268052380F83530136823F001031360B0
:103CA00000207047F7B5002301935C4B856D1F68BA
:103CB000C36D2E6808229A40324204460CD0016837
:103CC0000868400708D5086820F004000860AA606A
:103CD000626D42F00102626501229A40324208D0D0
:103CE00021684969090641BFAA60626D42F002027B
:103CF000626504229A40324208D021680968880728
:103D000041BFAA60626D42F00402626510229A40CF
:103D1000324210D02368196809070CD5AA601A68C6
:103D2000500337D51B68190301D4236C00E0A36C42
:103D30000BB120469847E16D20228A4032423AD0AA
:103D400023681868C60636D5AA6094F83520052A77
:103D50001A6827D122F016021A605A6922F08002EE
:103D60005A61226C0AB9A26C1AB11A6822F00802D0
:103D70001A603F238B40AB60012384F83530002369
:103D800084F83430236D002B45D0204603B0BDE8C5
:103D9000F04018471A68D2055EBF1A6822F0080280
:103DA0001A60C2E7500327D51B68190331D4636C2E
:103DB0000BB120469847636D6BB3636DDA0719D575
:103DC00022684FF41653B7FBF3F7052384F8353018
:103DD000136823F001031360019B0133BB4201937D
:103DE00002D81368DB07F7D4012384F835300023A9
:103DF00084F83430E36CC6E71A6812F4807208D194
:103E0000196821F010011960012384F8353084F815
:103E10003420E36BCCE703B0F0BD00BF7800002096
:103E200010B5044620B390F8393003F0FF021BB9F7
:103E300080F83820FEF714F8022384F8393023681C
:103E400061681A6822F440320A431A605A6BA1680A
:103E500022F007020A435A631A6CE1686FF30D02FD
:103E60000A431A6400200123E06384F8393010BD4E
:103E70000120FCE770477047036870B55E681D68F5
:103E8000F207044614D5E90512D51A6822F48072A7
:103E90001A60C26B42F00102C26301229A600423DD
:103EA00080F83930002380F83830436903B19847EF
:103EB000B20616D5AB0414D523681A6822F4005252
:103EC0001A6020229A60E36B43F00203E363042349
:103ED00084F83930002384F8383063690BB1204608
:103EE0009847300716D5290514D523681A6822F497
:103EF00000621A6008229A60E36B43F00403E363F4
:103F0000042384F83930002384F8383063690BB116
:103F10002046984772070BD56B0509D523681A68A8
:103F200022F480621A6004229A602046FFF7A2FF02
:103F3000B00714D5A90512D523681A6822F40072B7
:103F40001A6002229A60E36BE363012384F839303C
:103F5000002384F8383023690BB120469847F206D5
:103F600013D5EB0411D523681A6822F480521A6025
:103F700010229A60E36BE363012384F83930002355
:103F800084F838302046FFF776FF70BDF0B590F822
:103F90003820012A03464FF002002BD0012283F87B
:103FA000382083F8390003EB0112D2E90740556A43
:103FB000174E44EA0040093C012C9CBF05F07F42AB
:103FC00010434FEA01171A6888BF40EA056091B9AB
:103FD000516A314001435162012C9969916103D8C2
:103FE000596A21F07F4191620122002083F8392033
:103FF00083F83800F0BDD16931400143D161D9194E
:10400000012C896911619CBF25F07F451562EBE7A2
:10401000F0FFFC002DE9F74FDFF8BC916C4A00235C
:104020000D6801249C4004EA0506AC4340F0B780CB
:104030004D68032705F003044FEA430807FA08FC1C
:10404000671E012F6FEA0C0C34D8876807EA0C0E44
:10405000CF6807FA08F747EA0E078760476827EA3C
:10406000060EC5F300179F4047EA0E074760C76872
:1040700007EA0C0E8F6807FA08F747EA0E07022CCA
:10408000C76019D14FEAD30A00EB8A0A03F0070B85
:10409000DAF820704FEA8B0B4FF00F0E0EFA0BFE82
:1040A00027EA0E0E0F6907FA0BF747EA0E07CAF860
:1040B000207001E0032CDAD1076804FA08F407EA5B
:1040C0000C073C4315F4403F046068D00024019481
:1040D000D9F8444044F48044C9F84440D9F84440F5
:1040E00023F0030707F1804704F4804407F59C3769
:1040F000019403F0030C019CD7F808E04FEA8C0C04
:104100000F2404FA0CF42EEA040E324CA0424DD0D7
:1041100004F58064A0424BD004F58064A04249D0ED
:1041200004F58064A04247D004F58064A04245D0E5
:1041300004F58064A04243D004F58064A04241D0DD
:1041400004F58064A0423FD004F58064A0423DD0D5
:1041500004F58064A04214BF0A24092404FA0CF474
:1041600044EA0E04BC609468F74315F4801F0CBF4A
:104170003C4034439460D46815F4001F0CBF3C40AD
:104180003443D460546815F4003F0CBF3C403443C2
:1041900054601468ED0354BF3C4034431460013351
:1041A000102B7FF43DAF03B0BDE8F08F0024D5E7BE
:1041B0000124D3E70224D1E70324CFE70424CDE789
:1041C0000524CBE70624C9E70724C7E70824C5E789
:1041D000003C0140000002400038024000690840F5
:1041E000003818BF012070470AB181617047090487
:1041F000FBE7436901EA030221EA030141EA0241C4
:104200008161704701684B6913F480634FF00002CD
:1042100010D06FF480634B612023026380F83D303F
:1042200080F83E20036C80F83C2043F004030364D4
:1042300001207047184670472DE9F84606460F469C
:1042400091461D464FEA114A3368BAF1010F39D140
:104250005C6927EA0404A4B2B4FA84F46409A145B1
:1042600001D0002024E06A1CEFD0FFF7BBFB089BC5
:10427000C01AA84201D8002DE6D1BAF1010F336867
:1042800018D15B6927EA03039BB2B3FA83F35B0996
:104290009945D9D100232022336386F83D2086F842
:1042A0003E30326C86F83C3042F02002326401200D
:1042B000BDE8F8869B69DB43C3F3400383F0010349
:1042C000DBB2E5E79C69E443C4F3400484F00104F5
:1042D000E4B2C4E72DE9F04104460F46164698467D
:1042E0002568686927EA000080B2C0B16B695A0589
:1042F00017D52B6843F400732B606FF480636B61F8
:1043000020220023236384F83D2084F83E30236C70
:1043100043F004032364002384F83C300120BDE80B
:10432000F081731CDDD0FFF75DFBA0EB0800B0420D
:1043300001D8002ED4D123685A6927EA020292B22A
:10434000002ACDD000232022236384F83D2084F866
:104350003E30236C1343DDE770B504460D46164628
:1043600023685B691B0601D500201EE02046FFF78D
:1043700049FFC8B96A1CF3D0FFF734FB801BA84281
:1043800001D8002DECD123685B6913F08003E7D1DD
:104390002022236384F83D2084F83E30226C84F888
:1043A0003C3042F020022264012070BD2DE9F04330
:1043B0001546026885B0DDE90C789946136843F428
:1043C000807313600E463B46CDF8008000224FF00C
:1043D00001110446FFF730FF236838B11B68DB0585
:1043E00002D54FF400732364032620E006F0FE0696
:1043F0001E611A4943463A462046FFF76BFFA8B9AB
:10440000236803905A6903929B6903934246394695
:104410002046039BFFF7A0FF064660B1236C042BE8
:1044200001BF2268136843F400731360012630460D
:1044300005B0BDE8F083B9F1010F236802D1EDB2F8
:104440001D61F4E72A0A1A61394642462046FFF701
:1044500083FF0028E2D12368F1E700BF02000100DA
:104460002DE9FF479A46036815461A6842F48062B0
:104470001A601A68DDE90C7842F480721A600E4600
:104480003B46CDF8008000224FF001110446FFF7B3
:10449000D3FE236838B11B68DB0544BF4FF40073BB
:1044A0002364032021E05FFA86F906F0FE061E6110
:1044B0002A4943463A462046FFF70CFFA0B9236835
:1044C00003905A6903929B690393424639462046FA
:1044D000039BFFF741FF58B1236C042B01BF2268F7
:1044E000136843F400731360012004B0BDE8F08743
:1044F000BAF1010F23681AD1EDB242461D61394667
:104500002046FFF729FF02460028E5D121680B6805
:1045100043F480730B602046CDF800803B464FF09B
:104520000111FFF789FE226860B11368B4E72A0A17
:104530001A61394642462046FFF70EFF0028CBD1CC
:104540002368D9E749F00103044913612046434633
:104550003A4604B0BDE8F047FFF7BCBE02000100D8
:1045600070B504460D46164623685B695B0701D5A6
:1045700000201EE02046FFF745FEC8B96A1CF3D0B4
:10458000FFF730FA801BA84201D8002DECD1236838
:104590005B6913F00403E7D12022236384F83D20F4
:1045A00084F83E30226C84F83C3042F020022264D1
:1045B000012070BD70B504460D46164621684B6952
:1045C00013F0400301D0002011E04A69D2060FD554
:1045D0006FF010024A612022236384F83D2084F8A2
:1045E0003E30236C2364002384F83C30012070BDEE
:1045F000FFF7F8F9801BA84201D8002DDED123680F
:104600005B6913F04003D9D12022236384F83D2055
:1046100084F83E30236C1343E4E7000070B5044691
:1046200008B9012070BD90F83D3003F0FF021BB9BE
:1046300080F83C20FDF734FC242384F83D302368C7
:104640001A6822F001021A601A6842F400421A60E5
:104650001A6822F400421A6000F088FE3F4B656839
:104660009D4294BF3E4B3F4B98428CBF0023012399
:10467000002BD6D12268394E51683B4BB0FBF3F387
:1046800021F03F011943B542516088BF4FF496763F
:10469000116A88BF734321F03F0184BF4FF47A76DB
:1046A000B3FBF6F301330B431362D169431E2B486E
:1046B00021F44F41854221F0FF0132D86D0040F6D0
:1046C000FC70B3FBF5F30133034242D0C3F30B0399
:1046D0001943D161D4E907301168034321F0C001C7
:1046E0000B4313609168D4E9030321F403410343AE
:1046F00021F0FF010B439360D4E90530D1680343F7
:1047000021F0FF010B43D360136843F001031360F2
:1047100000202023206484F83D30206384F83E008C
:1047200080E7A06850B905EB4505B3FBF5F301330D
:10473000C3F30B037BB143F40043C9E7192068437B
:10474000B3FBF0F30133C3F30B0323B143F4404352
:10475000BEE70423BCE70123BAE700BFA08601003F
:104760007F841E00FF083D0040420F002DE9F74303
:10477000044699460C9E0F469046FFF733F994F88D
:104780003D30202B054603D0022003B0BDE8F08366
:1047900000903C49192301222046FFF74DFD0028D7
:1047A000F2D194F83C30012BEED02068012384F83C
:1047B0003C300368D9075EBF036843F00103036020
:1047C000036823F400630360212384F83D30402311
:1047D00084F83E30002323640A9B6362BDF82C30CA
:1047E0006385638D2385284BE3624246CDE90065EE
:1047F0004B4639462046FFF7D9FD00282AD0012034
:10480000C3E7FFF7A9FD40B1236C042B01BF226869
:10481000136843F400731360F1E7636A27681A466C
:1048200012F8011B39616262628D218D013A92B2E8
:1048300062857A69481E80B2520720850AD548B140
:104840005A783A6102336362638D013B02399BB24D
:1048500021856385238D2A4631462046002BD0D101
:10486000FFF77EFE0028CFD12268136843F400735F
:104870001360202384F83D3084F83C0084F83E0027
:1048800083E700BF020010000000FFFF2DE9F043A6
:10489000044687B09946109F0D469046FFF7A2F850
:1048A00094F83D30202B064604D00225284607B058
:1048B000BDE8F08300907949192301222046FFF7D3
:1048C000BBFC0028F1D194F83C30012BEDD02068DE
:1048D000012384F83C300368DB075EBF036843F0C4
:1048E00001030360036823F400630360222384F858
:1048F0003D30402384F83E30002323640E9B6362E6
:10490000BDF83C306385638D2385654BE3622946A2
:10491000CDE900764B4642462046FFF7A1FD05460D
:1049200008B10125C2E7228D2368A2B902905A6915
:1049300002929A690292029A1A6842F400721A600C
:10494000238D002B2CD1202284F83D2084F83C308C
:1049500084F83E30AAE7012A0AD11A6822F480625C
:104960001A6003905A6903929A690392039AE3E7E3
:10497000022A0ED11A6822F480621A601A6842F480
:1049800000621A6004905A6904929B690493049B24
:10499000D6E705905A6905929B690593059BCFE779
:1049A000032B56D8012B15D1324639462046FFF746
:1049B00001FE0028B5D123681A69636A1A70636A18
:1049C00001336362238D013B2385638D013B9BB2E1
:1049D0006385B5E7022B334900963B464FF0000252
:1049E000204619D1FFF728FC00289AD123681A68BD
:1049F00042F400721A601A69636A1A70626A531C80
:104A00006362238D013B2385638D013B9BB26385EC
:104A100023681B695370D2E7FFF70EFC024600289B
:104A20007FF47FAF2368196821F4806119601969E8
:104A3000636A1970636A1B4901336362238D013B0A
:104A40002385638D013B9BB26385204600963B46E0
:104A5000C8E7324639462046FFF7ACFD00287FF410
:104A600060AF23681A69636A1A70628D616A013ADD
:104A700092B24B1C628522686362238D5069013BB0
:104A80009BB2400723857FF55BAF032B02BF136802
:104A900023F48063136013694B7090E702001000E9
:104AA0000000FFFF0400010010B590F83D30202BFE
:104AB000DCB216D1242380F83D3003681A6822F056
:104AC00001021A605A6A22F010025A625A6A1143AD
:104AD00059621A6842F001021A6080F83D400020D5
:104AE00010BD0220FCE730B590F83D30202BDCB241
:104AF00016D10268242380F83D30136823F00103A7
:104B00001360556A4FF6F0732B400B439BB2536210
:104B1000136843F00103136080F83D40002030BD6E
:104B20000220FCE70068D20184328318F0B5C76820
:104B30005D684C680E6805F470455D60C56806F1F7
:104B4000010CC5F30B45C7F30B472744654445EA01
:104B500007455D60C768CD68C7F30A072F449D68A5
:104B600005F470459D60D0F80CC08D68CCF30A0C3C
:104B70000135654445EA07459D601D69D1F810C0BF
:104B80008F6925F007051D61C3F810C091F83050FA
:104B900045EA076591F8317045EA072591F83270CA
:104BA00045EA07459D615D6925F0FF055D614D6939
:104BB0005D61DD6925F4E06525F00705DD61D1E97A
:104BC00007573D43DD61BCF1070F4D6A9D629CBFF5
:104BD0000D4D15F80C70DD6A05F0E025DD6288BF2B
:104BE00001278D6AC96AA41B7C437D43033444EAD0
:104BF0000544DC621C6B6FF30A041C631963835861
:104C000043F001038350F0BD246A020838B504461E
:104C100000284ED090F8A13003F0FF021BB980F8B5
:104C2000A020FDF799F9022384F8A13023689A693E
:104C300022F070429A61D4E901200243E068996948
:104C40000243206902430A439A61D4E9051242EA09
:104C500001429A60D4E9071242EA0142DA60D4E9DB
:104C6000091242EA01421A61D4E90B1242EA0142F6
:104C70005A61DA6A94F8350094F8361002F07F42EF
:104C8000DA62DD6A94F834202A4342EA002242EADA
:104C90000142DA625A6B42F006025A639A6942F0A4
:104CA00001029A6100200123C4F8A40084F8A13015
:104CB00038BD0120FCE770477047036870B59E6BF4
:104CC0005D6B7207044614D5690712D55A6B22F042
:104CD00004025A630422DA63D0F8A43043F00103DB
:104CE000C0F8A430002380F8A12080F8A030FFF79E
:104CF000E2FFB20716D5AB0714D523685A6B22F032
:104D000002025A630222DA63D4F8A4301343C4F8CF
:104D1000A430042384F8A130002384F8A030204676
:104D2000FFF7C9FFF00710D5E9070ED523685A6BC6
:104D300022F001025A630122DA63002384F8A120E1
:104D400084F8A0302046FCF72BFC320711D52B0746
:104D50000FD523685A6B22F008025A630822DA63DF
:104D6000012384F8A130002384F8A0302046FFF707
:104D7000A3FF70BD2DE9F04190F8A030012B06464D
:104D80000F4694464FF002001FD04FF0010886F8FE
:104D9000A08086F8A10034240D4604FB02640FCDE8
:104DA00038340FC40FCD0FC40FCD0FC42B68236050
:104DB000304662463946FFF7B5FE33680020C3F837
:104DC000248086F8A18086F8A000BDE8F08100006C
:104DD00090F8A020012A03464FF0020012D01A6872
:104DE00083F8A100506B20F0010050630648016475
:104DF000516B41F0010151630020012283F8A12091
:104E000083F8A000704700BF0068014037B5002359
:104E10000193184B184D1A6C42F080521A641B6CA7
:104E200003F080530193019B144B01221A64FEF797
:104E3000D9FD04466B68DA030BD5104B0E4D0122E9
:104E40005A64FEF7CFFD04466B689B030AD5002029
:104E500006E0FEF7C7FD001BB0F57A7FEAD9032014
:104E600003B030BDFEF7BEFD001BB0F57A7FEBD975
:104E7000F5E700BF003802400070004000000E421D
:104E80002DE9F341044640B30368DE0710D42368DC
:104E90009D075BD42368190700F19D8023685A079A
:104EA00000F1BD80A369002B40F0248100202CE09C
:104EB0008D4B9A6802F00C02042A07D09A6802F01F
:104EC0000C02082A0BD15B68590208D5864B1B6877
:104ED0009A03DCD56368002BD9D1012015E0636803
:104EE000814DB3F5803F13D12B6843F480332B60A1
:104EF000FEF778FD7C4E054633689B03C7D4FEF76A
:104F000071FD401B6428F7D9032002B0BDE8F08191
:104F1000B3F5A02F04D12B6843F480232B60E3E783
:104F20002A6822F480322A602A6822F480222A60C9
:104F3000002BDDD1FEF756FD06462B689F03A6D554
:104F4000FEF750FD801B6428F7D9DDE7664B9A68B1
:104F500012F00C0F07D09A6802F00C02082A11D147
:104F60005B685D020ED4604A1368990702D5E36856
:104F7000012BB2D11368216923F0F80343EAC1037E
:104F8000136087E7E268594BB2B101221A60FEF75D
:104F900029FD554D06462B689B0707D52B682269CE
:104FA00023F0F80343EAC2032B6073E7FEF71AFD10
:104FB000801B0228EFD9A7E71A60FEF713FD4A4EBF
:104FC000054633689F077FF565AFFEF70BFD401B75
:104FD0000228F6D998E76269444B82B10122C3F8EE
:104FE000802EFEF7FFFC404E0546736F9B073FF592
:104FF00055AFFEF7F7FC401B0228F6D984E7C3F84B
:10500000802EFEF7EFFC384E0546736F9F077FF545
:1050100045AFFEF7E7FC401B0228F6D974E7324B98
:105020001A6C12F0805228D101921A6C42F0805210
:105030001A641B6C03F080530193019B01272C4DD4
:105040002B68D8051BD5A368274D012B27D12B6FC3
:1050500043F001032B67FEF7C5FC234E054641F2E2
:105060008838336F9A0739D5002F3FF41BAF1E4A9B
:10507000136C23F08053136414E70027DFE72B68D9
:1050800043F480732B60FEF7ADFC06462B68D90510
:10509000D9D4FEF7A7FC801B0228F7D934E7052BEB
:1050A00004D12B6F43F004032B67D0E72A6F22F063
:1050B00001022A672A6F22F004022A67002BCAD154
:1050C000FEF790FC41F2883806462B6F9B07CBD544
:1050D000FEF788FC801B4045F7D915E7FEF782FCF8
:1050E000401B4045BDD90FE7003802400000474251
:1050F00000700040374DAA6802F00C02082A3ED02A
:10510000022B354B4FF000021A662BD1FEF76AFCDA
:1051100006462B6899011FD4D4E907321343626A0B
:1051200043EA8213E26A43EA0263A26A5208013A3E
:1051300043EA02436B60284B264D01221A66FEF7B4
:1051400051FC04462B689A013FF5B0AEFEF74AFCCD
:10515000001B0228F6D9D7E6FEF744FC801B022884
:10516000D7D9D1E6FEF73EFC04462B689B017FF5BC
:105170009DAEFEF737FC001B0228F6D9C4E6012BD2
:105180003FF4ABAE6B68E26903F4800191427FF4B7
:10519000A4AE216A03F03F028A427FF49EAE616AA8
:1051A00047F6C0721A40B2EB811F7FF496AEA26A36
:1051B000520803F44031013AB1EB024F7FF48DAE57
:1051C000E26A03F07063B3EB026F14BF01200020AA
:1051D0009BE600BF0038024000004742134908B573
:1051E0008B6803F00C03042B1CD0082B1CD14A68DD
:1051F0004B68496813F4800314BF0D480D48C1F390
:10520000881118BF002302F03F02A1FB0001FBF749
:105210003FF8064B5B68C3F3014301335B00B0FB0F
:10522000F3F008BD0248FCE70248FAE70038024004
:1052300000127A000024F4002DE9F0410D460446E6
:1052400010B90120BDE8F081434B1A6802F00F024B
:105250008A4228D321688F072DD4C80740D43E4BFB
:105260001A6802F00F02AA4265D8226851076BD46F
:10527000130707D5394A2169936823F4604343EA49
:10528000C1039360FFF7AAFF344B354A9B68C3F311
:105290000313D35CD840334B1860334B1868FDF7C9
:1052A000ADF80020CEE7CAB21A701B6803F00F03F6
:1052B0008B42C6D1CEE7294B11F0040F1EBF9A686E
:1052C00042F4E0529A600E0742BF9A6842F460428C
:1052D0009A609A68A06822F0F00202439A60BCE7E4
:1052E00062681E4B012A1CD11B6813F4003FA8D032
:1052F0001A4EB36823F003031343B360FEF772FB47
:1053000041F288380746B368626803F00C03B3EBD8
:10531000820FA4D0FEF766FBC01B4045F3D90320E3
:1053200090E7911E01291B6802D813F0007FDEE789
:1053300013F0020FDBE7EAB21A701B6803F00F03E9
:10534000AB427FF47EAF90E70449E0688B6823F4BA
:10535000E05303438B608BE7003C0240003802407F
:105360000C6A02087800002080000020044B054AE7
:105370009B68C3F38223D35C034A1068D84070470C
:1053800000380240046A020878000020044B054AF5
:105390009B68C3F34233D35C034A1068D84070471C
:1053A00000380240046A0208780000200F230360DE
:1053B0000B4B9A6802F0030242609A6802F0F00216
:1053C00082609A6802F4E052C2609B68DB0803F4D2
:1053D000E0530361034B1B6803F00F030B6070473E
:1053E00000380240003C0240036813F0430FF7B559
:1053F000044640F08780236813F00C0F45D08C4B97
:105400008C4D00221A67FEF7EDFA06462B689900CC
:1054100000F1CA8021684A0715D5D4E90403D5F8FC
:1054200088201B0602F0E04243EA80131343C5F8CC
:105430008830D5F88C30226A23F4F853013A43EAD5
:105440000223C5F88C300B0714D57A4AA369D2F829
:10545000881020691B0701F0706143EA80130B4339
:10546000C2F88830D2F88C30616A23F440330B43A1
:10547000C2F88C306E4B6F4E01221A67FEF7B2FAFB
:10548000054633689F0040F196802368980633D51F
:1054900000230193674B684D1A6C42F080521A64E6
:1054A0001B6C03F080530193019B2B6843F48073C2
:1054B0002B60FEF797FA06462B68D80540F18280EC
:1054C0005C4D2B6F13F4407340F08380A36A03F4A8
:1054D0004072B2F5407F574A40F09F80916823F0B8
:1054E000704021F4F81120F4407001439160116F75
:1054F000C3F30B030B4313672368DB0600F19180B2
:1055000000204FE04A4B4B4E00229A66FEF76AFAA3
:10551000054633681F013FD42168C80741BFD4E95D
:1055200001231B0743EA8213C6F884308A0715D586
:10553000404AE368D2F8840065681B0600F0E0404A
:1055400043EA85130343C2F88430D2F88C00E36940
:1055500020F01F00013B0343C2F88C304B060AD5F4
:10556000E36862681B0643EA8213A26843EA027397
:10557000304AC2F884302E4B2E4E01229A66FEF736
:1055800031FA054633681F013FF535AFFEF72AFAB9
:10559000401B0228F6D904E0FEF724FA401B02283B
:1055A000B7D9032003B0F0BDFEF71CFA801B022818
:1055B0007FF62CAFF5E7FEF715FA401B02287FF6C1
:1055C00060AFEEE7FEF70EFA801B02287FF674AF9D
:1055D000E7E7A26A02F4407293423FF477AF2B6F81
:1055E000134A0121C2F8401E23F440730021C2F87F
:1055F000401E2B672B6FD9077FF568AFFEF7F2F9D6
:1056000041F2883706462B6F9A073FF55FAFFEF7EA
:10561000E9F9801BB842F6D9C3E7916821F4F81183
:1056200064E7064B94F82C20C3F8E02168E700BF3C
:10563000000047420038024000700040001047421E
:1056400038B50D460446C8B190F82C3003F0FF027F
:105650001BB980F82D20FCF765FE022384F82C305E
:10566000211D206801F098F962682068294601F040
:10567000C9F9012384F82C30002038BD0120FCE753
:1056800070B590F82C30022B05460E46D8B212D0D9
:1056900000F0FB04012C0FD1022385F82C30286880
:1056A00001F0E6F93368022B06BF052385F82C309C
:1056B00085F82C40002070BD0120FCE738B590F83B
:1056C0002C30022B0446D8B20DD094F82C30012B8C
:1056D000DDB209D10223206884F82C3001F0ECF906
:1056E00084F82C50002038BD0120FCE72DE9F34759
:1056F0001F46894690460446FEF774F90A9D3D44CC
:105700002D1AFEF76FF9264B1E68C6F3CB366E4393
:10571000824601962268936839EA03030CBF01238D
:105720000023434501D100202EE07B1CF3D0FEF77F
:1057300059F9A0EB0A00A84229D323685A6822F03D
:10574000E0025A606268B2F5827F0AD1A268B2F5BF
:10575000004F02D0B2F5806F03D11A6822F04002E8
:105760001A60A26AB2F5005F07D11A6822F40052EB
:105770001A601A6842F400521A60012384F851300A
:10578000002384F85030032002B0BDE8F087019B6D
:105790001BB1019B013B0193BCE71D46BAE700BF6B
:1057A00078000020F0B585B00B4600920E461746F3
:1057B000022101220446FFF799FF054628B1636DD7
:1057C00043F020036365032515E0124B1868124B64
:1057D000B0FBF3F04FF47A73584363680390B3F56A
:1057E000827F0BD1009733462A4680212046FFF75F
:1057F0007DFF0028E3D1284605B0F0BD039B002BB8
:10580000F9D0039B013B039323689B681B06F5D4E7
:10581000F1E700BF7800002000366E0137B50B4677
:105820004168B1F5827F044608D000920121002230
:10583000FFF75CFFD0B9002003B030BD8168B1F53F
:10584000004F02D0B1F5806F07D125682868B1F507
:10585000806F20F04000286004D000928021002258
:105860002046E5E7009201210022F9E7636D43F04D
:10587000200363650320DFE710B50446002855D0F8
:10588000436A002B4ED14268B2F5827F00D0C361DB
:105890000023A36294F8513003F0FF0223B984F887
:1058A00050202046FCF734FC2168A068A26902233E
:1058B00084F851300B6823F040030B60636800F4F8
:1058C000044003F482730343E06800F40060034380
:1058D000206900F002000343606900F00100034307
:1058E00002F400700343E06900F038000343206ACB
:1058F00000F080000343A06A00F4005003430B60F3
:10590000636A120C03F0100302F004021A434A60A7
:10591000CB6923F40063CB6100200123606584F828
:10592000513010BD0023C0E90433B1E70120F8E78E
:105930002DE9F74304461F460D469046FEF752F800
:1059400094F85130012B8146D8B240F09F80002D51
:1059500074D0B8F1000F71D094F85030012B00F0E2
:105960009580032384F8513000236365C4E9103324
:10597000A4F83680A363A387E387A368266884F826
:105980005000B3F5004F2563A4F8348007D1336885
:1059900023F040033360336843F48043336033685B
:1059A000E2685B065EBF336843F040033360B2F5E4
:1059B000006F636845D113B1B8F1010F07D135F815
:1059C000023BF3602563E38E013B9BB2E386E38EEB
:1059D0009BB2D3B94A4639462046FFF7E3FE00287A
:1059E00051D1A36833B901932368DA6801929B68A7
:1059F0000193019B012384F85130606D0023C01A8C
:105A000084F8503018BF012018E022689368980786
:105A100005D5236B33F8021BD1602363D3E7FDF771
:105A2000E1FFA0EB0900B842D1D3791CCFD001230C
:105A300084F85130002384F85030032003B0BDE8CF
:105A4000F08313B1B8F1010F08D12B783373236BB6
:105A500001332363E38E013B9BB2E386E38E9BB26B
:105A6000002BB7D023689A68920703D5226B12786F
:105A70001A73ECE7FDF7B6FFA0EB0900B842EDD3CF
:105A80007B1CEBD0D3E720236365AAE70220D5E790
:105A90002DE9F74304460D4691461E46DDF8288061
:105AA000FDF7A0FF94F851306268012B0746D9B288
:105AB0000AD0B2F5827F40F0E580A368002B40F069
:105AC000E180042940F0DE80002D4BD0B9F1000FB9
:105AD00048D0002E46D094F85030012B00F0D280F0
